:020000040800F2
:1000000060050020050100084F1E00081D160008AD
:100010004D1E0008B5080008B11E000800000000D1
:10002000000000000000000000000000531E000857
:10003000B708000800000000511E0008551E000807
:100040001F0100081F0100081F0100081F01000810
:100050001F0100081F0100081F0100081F01000800
:100060001F0100081F0100081F0100081F010008F0
:100070001F0100081F0100081F0100081F010008E0
:100080001F0100081F0100081F0100081F010008D0
:100090001F0100081F0100081F0100081F010008C0
:1000A0001F0100081F0100081F0100081F010008B0
:1000B0001F0100081F0100081F0100081F010008A0
:1000C0001F0100081F0100081F0100081F01000890
:1000D0001F0100081F0100081F0100081F01000880
:1000E0001F0100081F0100081F010008DFF810D0E1
:1000F00000F0CEFB00480047A9230008AFF30080C2
:10010000600500200648804706480047FEE7FEE7F6
:10011000FEE7FEE7FEE7FEE7FEE7FEE7FEE7FEE7B7
:10012000AF1E0008ED000008202A04DB203A21FA67
:1001300002F00021704721FA02F3D040C2F1200200
:100140009140084319467047D2B201E000F8012BF4
:10015000491EFBD270470022F6E710B513460A4647
:1001600004461946FFF7F0FF204610BDF0B480EAC0
:100170000102D40F4200B2EB410F02D20246084600
:1001800011464A0042D0C30DDDB2C1F3C752AD1AC9
:10019000202D35DAC1F3160141F4000204B15242B8
:1001A000C5F1200602FA06F12A411044B3EBD05FF4
:1001B00023D0C4B1012DA0EBC35009DCF0BC4FF03B
:1001C000004202EAC352DBB200F5000000F084BA3C
:1001D000400000F1807000EBC350A0F1807040EA55
:1001E000D170490009E0490841EAC071A0EBC35051
:1001F00000F50000400800EBC350F0BC00F063BA0B
:100200006142012202EB4101001BF6E7F0BC70479E
:1002100081F00041AAE780F00040A7E730B480EA0F
:10022000010202F0004530F0004221F0004013D0FE
:1002300090B1C30DD40DC2F31601C0F31600E41A39
:1002400041F4000140F400027D34914201D3641C6A
:1002500000E04900002C02DA30BC002070474FF467
:1002600000000023914201D3891A034340084FEA5A
:100270004101F7D151B1914202D14FF0004105E067
:1002800002D24FF0010101E06FF0010103EBC45015
:10029000284430BC00F017BA2DE9FE4F804681EAB1
:1002A0000300C00F0C46009021F0004123F00045F0
:1002B000B8EB0200A94105D24046214690461C46B3
:1002C0000B46024623F00040104347D0270DC7F3EA
:1002D0000A00C3F30A510290401A019040286BDAD9
:1002E000C3F3130040F4801B0098924620B1002312
:1002F000D2EB030A63EB0B0B01985946C0F14002A5
:10030000504600F0BFF906460D4650465946019A40
:1003100000F0C7F910EB08006141002487EA115290
:1003200084EAE7731A4340D0009A62B3019A012A23
:100330004FEA075215DC001B61EB02014FF000424F
:1003400002EA0752CDE90042001C41F58011324615
:100350002B4600F0FEF903B0BDE8F08F4046214681
:10036000F9E7001B61EB0201001C41F58013001846
:100370005B412018A2F5001747EB030140EAD57056
:10038000B6196D4111E06D084FEA360645EAC075B1
:100390004FEA0752001B61EB0201001C41F580117E
:1003A00049084FEA30000019514132462B4603B04C
:1003B000BDE8F04F00F0BEB90098012240000023D4
:1003C000D0EB020263EBE073009821464FEAE07441
:1003D000B8EB000061EB0401E9E783F000435BE761
:1003E00081F0004158E72DE9FE4F81EA030404F053
:1003F000004421F0004100944FF0000B23F0004333
:1004000050EA01045ED052EA03045BD0C3F30A54FD
:10041000C1F30A552C44A4F2F3340194A0FB025416
:10042000C1F3130141F48011C3F3130343F48013A8
:1004300001FB024400FB034E840A970A44EA8154FC
:1004400047EA8357A4FB076802958D0A05FB0785D9
:100450004FEA932C04FB0C542705029D4FEA0658E3
:1004600047EA1637B5EB08056EEB070C870E920EC0
:1004700047EA811742EA8312A7FB0201B6EB0B01A0
:1004800064EB00042B0D43EA0C335E1844EB1C5064
:10049000DA465146E7FB0201C5F313044FEA0B337A
:1004A00043EA14534FEA0432019C43EA0603A4F1E1
:1004B0000C040294009CCDE900B400F04AF903B0AA
:1004C000BDE8F08F00200146F9E72DE9F04D81EA03
:1004D000030404F0004B21F0004514464FF0000ADD
:1004E00023F0004150EA050220D054EA01021DD059
:1004F000C5F30A570246C5F31303C1F31300C1F352
:100500000A5640F4801543F48013A7EB0608101B2D
:10051000D64608F2FD3873EB050002D308F1010856
:1005200001E092185B41B8F1000F03DA00200146A8
:10053000BDE8F08D00204FF48011064684460EE0A1
:10054000171B73EB050705D3121B63EB050306436B
:100550004CEA010C49084FEA300092185B4150EA1E
:100560000107EDD152EA030012D082EA040083EAC7
:100570000501084305D0101BAB4106D20122002320
:1005800006E000224FF0004302E06FF0010253103A
:100590001AEB06004CEB085110EB0A0041EB0B0183
:1005A000BDE8F04D00F0C6B870B521F0004303433C
:1005B0000CD0C1F30A550024D5EB040564EB040309
:1005C000D617AD1AB34102DB0020014670BD2018DA
:1005D00041EB025170BDC10F80EAE0700844CA07C8
:1005E0009623002100F078B80EB5C10F80EAE070C4
:1005F0000844CA07002140F233438DE80E000A4642
:100600000B4600F0A6F803B000BD0EB540F2334132
:1006100002910021CDE900110A460B4600F099F83D
:1006200003B000BD30B5041E71F1000404DB4FF0CF
:100630000044404264EB0101141E73F1000405DB29
:100640001C464FF00043524263EB04038B4208BF49
:10065000824230BD30B5041E71F1000404DB4FF05E
:100660000044404264EB0101141E73F1000405DBF9
:100670001C464FF00043524263EB0403994208BF0B
:10068000904230BD202A04DB203A00FA02F100201B
:1006900070479140C2F1200320FA03F319439040C0
:1006A0007047202A06DBCB17203A41FA02F043EAD2
:1006B000E07306E041FA02F3D040C2F1200291401B
:1006C0000843194670470029A8BF7047401C4900DD
:1006D00008BF20F00100704710B4B0FA80FC00FAA7
:1006E0000CF050EA010404BF10BC704749B1CCF1D2
:1006F000200421FA04F411FA0CF118BF012121435E
:100700000843A3EB0C01CB1D4FEA00614FEA102018
:1007100042BF002010BC704700EBC35010440029BA
:10072000A4BF10BC7047401C490008BF20F0010066
:1007300010BC704710B5141E73F1000408DA401C99
:1007400041F1000192185B411A4301D120F00100F0
:1007500010BD2DE9F04D92469B4611B1B1FA81F2E0
:1007600002E0B0FA80F220329046FFF78BFF044699
:100770000F4640EA0A0041EA0B0153465A46084335
:1007800013D0114653EA010019D0C8F14002504677
:10079000FFF7CAFC05460E46504659464246FFF74B
:1007A00071FF084305D0012004E020463946BDE82A
:1007B000F08D0020054346EAE0762C4337430A9843
:1007C0006305E40AA0EB08000022FD0A44EA47544E
:1007D0000A3002D500200146E9E7010510196941F8
:1007E000DDE9084500196941BDE8F04DA2E72DE9B2
:1007F000F04D00231A461B1A8A4103DB00200146F4
:10080000BDE8F08DC1F30A52C1F3130141F4801524
:100810004FF0000BD10702D100186D41521E002786
:10082000044640F2FF11384601EB620A3E4680461C
:10083000024600204FF48011FFF776FCC219714187
:10084000BB1846EB0100B4EB030C75EB000C04D3B2
:10085000E41A65EB000517460E46241908F101005D
:100860006D4180463428E3DDF91946EB0600091B8B
:10087000A84103D24FF0FF32134601E00022134695
:100880001BEB070046EB0A51BDE8F04DFFF752BFE6
:10089000064C074D06E0E06840F0010394E80700CD
:1008A00098471034AC42F6D3FFF724FC38250008F3
:1008B00058250008FEE770472DE9F84FDFF8B8919A
:1008C000002409F1040A0AF1040B23460F270BF157
:1008D000040EC9E00125A5402A40AA427DD1674EF9
:1008E000D1F804C0ACEB0608B44532D014DCBCF13E
:1008F000030F3AD009DCBCF1000F2AD0BCF1010F84
:100900001CD0BCF1020F31D11DE0BCF1110F17D08A
:10091000BCF1120F2AD119E0B8F5881F19D006DCF6
:10092000B8F5803F15D0B8F5801F1FD111E0B8F59C
:10093000001F0ED0B8F5041F18D10AE0CB6815E0EF
:10094000CB681B1D12E0CB6808330FE0CB680C337B
:100950000CE08B682BB1012B4FF0080303D04561ED
:1009600004E0042302E0056100E00023FF2A01D82F
:10097000064601E000F104064FEA840501D9A5F11D
:100980002005D6F8008007FA05FC28EA0C0803FACF
:1009900005F548EA0508C6F800804D68ED0062D507
:1009A000374DAE6946F00106AE61AD6924F003062D
:1009B00005F001050095334D06EB050CDCF80850F9
:1009C000A607360F07FA06F825EA0805DFF8B8800B
:1009D000404503D14FF0000817E044E0DFF8AC8059
:1009E000404502D14FF001080FE0DFF8A4804045F8
:1009F00002D14FF0020808E0DFF89880404502D1AC
:100A00004FF0030801E04FF0040808FA06F848EA3E
:100A10000508CCF808804D68D9F80060ED034D4614
:100A200001D5164300E096432E604D68DAF8006069
:100A3000AD03554601D5164300E096432E604D6840
:100A4000DBF80060ED025D4601D5164300E09643F9
:100A50002E604D68DEF80060AD02754601D5164384
:100A600000E096432E60641C0D682A46E5407FF442
:100A700031AFBDE8F88F0000000401400000111004
:100A8000001002400000014000080140000C01403D
:100A900000100140001401400148806870470000C8
:100AA0000000002070B5040025D094F83D0000251A
:100AB00020B984F83C50204600F078FA242084F8CD
:100AC0003D002068016821F0010101602068016893
:100AD00041F4004101602068016821F40041016097
:100AE00000F0B2FB4D4A6168914201D84C4900E0E8
:100AF0004C49884201D2012070BD4B492368B0FBAC
:100B0000F1F15E6826F03F060E435E606368934233
:100B100006D94FF4967359434FF47A73B1FBF3F14E
:100B20002368491C1E6A26F03F063143196261683A
:100B3000914210D84900401EB0FBF1F2521CC2F3A2
:100B40000B02042A01D2042022E0B0FBF1F0401C89
:100B5000C0F30B001CE0A268F2B301EBC10303EB8E
:100B60000116431EB3FBF6F35B1C43F480431B05E5
:100B700049D092B301EBC10202EB0111401EB0FB60
:100B8000F1F0401CC0F30B0040F4804040F4004002
:100B90002168CA694CF6FF739A431043C861D4E9CF
:100BA000071001432068026822F0C002114301606F
:100BB000D4E9030101432068826848F2FF339A4375
:100BC00011438160D4E9050108432168CA6822F015
:100BD000FF021043C86001E00EE016E020680168E3
:100BE00041F0010101602564202084F83D00256367
:100BF00084F83E50002070BD01EB4106431EB3FB5C
:100C0000F6F35B1CB3E70120C2E701EB4101401E94
:100C1000B0FBF1F0401CC0F30B00B7E7A086010069
:100C200080841E0000093D0040420F002DE9FF4F67
:100C300083B00025DDE910799A4693460446DDF835
:100C400048800095FFF728FF064694F83D002028CD
:100C50007CD11923012285492046009600F0EEFD43
:100C60000028F5D194F83C0001286FD0012084F8C9
:100C70003C0020680168C90703D1016841F0010107
:100C800001602068016821F400610160222084F87D
:100C90003D00402084F83E0025646762A4F82A9055
:100CA000608D20857248E062CDE9008653465A4641
:100CB0002046049900F0CAFC00287DD1208DDFF881
:100CC000B491202768B1012814D002282068016857
:100CD0001ED041F480610160206841698069009004
:100CE000B6E02068416981690091016841F40071B2
:100CF0000160ADE02068016821F48061016072B696
:100D00002068416981690091016841F400710AE03D
:100D100041F40061016072B6206841698169009107
:100D2000016821F48061016062B691E0032868D80F
:100D300001280CD0022843464FF0000249462046C5
:100D400000960FD000F07AFDB0BB10E08BE0324689
:100D50004146204600F0F1FD70BB20680069616AE1
:100D600008706CE000F06AFD30BB72B634E02068B9
:100D7000016821F48061016072B620680069616ACF
:100D80000870606A401C6062208D401E2085608D66
:100D9000401E6085384846F2A8110068B0FBF1F0AB
:100DA000C0EBC00000EB80000090401E009008D017
:100DB00020684069C04300E029E040070CD5009856
:100DC000F3E744F8305F6773A573206940F02000B3
:100DD000206162B625731AE02068016841F4007151
:100DE000016020680069616A0870606A401C606286
:100DF000218D491E2185618D491E618562B621685C
:100E00001BE032464146204600F097FD18B1012014
:100E100007B0BDE8F08F20680069616A0870606AF9
:100E2000401C6062218D491E2185618D491E6185AE
:100E300021684A69D24352070AD409690170606A7D
:100E4000401C6062208D401E2085608D401E6085A4
:100E5000208D00287FF46AAF84F83D7084F83E50FE
:100E600084F83C50D4E70220D2E7000002001000D2
:100E70000000FFFF040001000C0000202DE9FF4FDF
:100E800083B09A46DDE9119793460446DDF8408029
:100E9000FFF702FE054694F83D0020287FD1192374
:100EA000012240492046009500F0C8FC002876D178
:100EB00094F83C00012872D0012084F83C0020689E
:100EC0000168C90703D1016841F001010160206890
:100ED000016821F400610160212084F83D00402078
:100EE00084F83E0000262664C4F82480A4F82A90E2
:100EF000608D20852C48E062CDE9007553465A4646
:100F00002046049900F020FC70B930E02A463946AA
:100F1000204600F045FD58B1206C042804D120681B
:100F2000016841F400710160012007B0BDE8F08F55
:100F3000606A216800780861606A401C6062218DE7
:100F4000491E89B22185628D521E628522685369CD
:100F5000DB435B070BD469B100781061606A401C09
:100F60006062208D401E2085608D401E6085208D32
:100F70000028CBD12A463946204600F039FC00280B
:100F8000CAD154F83D0B016841F400710160202082
:100F900004F81E09E67766770020C6E7FFE702201F
:100FA000C3E70000020010000000FFFF10B586B08C
:100FB0000021009101910291039100680F4988423C
:100FC0001AD10F4CA06940F00800A061A0696946E1
:100FD00000F008000490C02000901220019003202F
:100FE00003900848FFF768FCE06940F40010E061F6
:100FF000E06900F40010049006B010BD00540040F9
:1010000000100240000C014002488168027811443F
:101010008160704700000020074810B5016841F06A
:1010200010010160032000F067F8002000F006F8CE
:1010300000F024F8002010BD0020024070B50D4DD6
:1010400004464FF47A712878B1FBF0F00A49096838
:10105000B1FBF0F000F0CEFA48B9102C07D2002214
:101060002146501E00F028F800206C6070BD012061
:1010700070BD0000000000200C0000200C4808B5E6
:10108000816941F001018161816901F001010091F3
:10109000C16941F08051C161C06900F08050009089
:1010A0000448416821F0E06141F00071416008BDF1
:1010B0000010024000000140F0B40E4B1B680C46CB
:1010C000C3F30223C3F10705042D00D90425191D1C
:1010D000072901D2002300E0DB1E012606FA05F1F4
:1010E000491E214099409E40761E16403143F0BC77
:1010F00000F0F3BE0CED00E0064900F007020868BE
:101100004FF6FF03184040EA0220034A10430860EC
:10111000704700000CED00E00000FA052DE9F047F3
:101120000F46050061D0434E306800F00700B8421A
:1011300009D2306820F0070038433060306800F092
:101140000700B84251D128683B4C810712D54007AF
:1011500003D5606840F4E06060602878000703D53C
:10116000606840F4605060606068A96820F0F0003A
:10117000084360602878C00728D06868012810D02C
:101180002168022810D0890700292EDA616821F031
:10119000030101436160FFF77FFC804641F288391B
:1011A0000DE021688903EFE78901EDE7FFF774FCA3
:1011B000A0EB0801494502D90320BDE8F08760682B
:1011C000696800F00C00B0EB810FEFD1306800F0DF
:1011D0000700B8420BD9306820F007003843306070
:1011E000306800F00700B84201D00120E5E7287818
:1011F000400705D56068E96820F4E0600843606056
:101200002878000706D56068296920F4605040EA14
:10121000C100606000F028F86168084AC1F303115A
:10122000515CC8400649086006480068FFF706FFA1
:101230000020C2E700200240001002408024000885
:101240000C0000200400002004480549006849689B
:10125000044AC1F30221515CC84070470C000020D1
:10126000001002409024000812A185B00FC98DE83B
:101270000F0014A0144A006804905168134801F04C
:101280000C03042B10D0082B0ED1C1F38343C903E8
:101290001DF803000AD5516804AAC1F34041515C0E
:1012A0000A4A5043B0FBF1F005B070470849484383
:1012B000FAE7000002030405060708090A0B0C0DF3
:1012C0000E0F1010010200000010024000127A0000
:1012D00000093D002DE9F84F040070D02078C04D82
:1012E000C00749D06868C0F38100012807D068684A
:1012F000C0F38100022809D16868C00306D52868B8
:10130000800339D560680028E7D035E06068B0F523
:10131000803F0BD010B1B0F5A02F11D0286820F479
:1013200080302860286820F4802002E0286840F49B
:1013300080302860606890B1FFF7AEFB06460AE097
:10134000286840F480202860F0E700BFFFF7A4FB86
:10135000801B642873D828688003F7D50CE0FFF75A
:101360009BFB064605E000BFFFF796FB801B642849
:10137000F0D828688003F7D420789A4E80074FF081
:1013800001094FF0000839D5686810F00C0F07D03C
:101390006868C0F38100022809D16868C00306D4D8
:1013A0002868800714D52069012808D110E0206939
:1013B000B0B1C6F80090FFF76FFB074605E00AE101
:1013C000FFF76AFBC01B0228C4D828688007F7D53E
:1013D0002868616920F0F80040EAC10028600DE04B
:1013E000C6F80080FFF758FB074604E0FFF754FB00
:1013F000C01B022823D828688007F7D4207800076C
:101400002CD57948A169D9B1C0F80090FFF744FB09
:10141000074604E0FFF740FBC01B02280FD8686AAC
:101420008007F7D571484FF4FA510068B0FBF1F02E
:10143000009000BF0098411E0091FAD20EE080E0BB
:10144000C0F80080FFF728FB074604E0FFF724FB05
:10145000C01B022875D8686A8007F7D42078400737
:1014600060D5E8690027C00008D4E86940F08050E2
:10147000E861E869012700F0805000905C4801684D
:10148000C90513D40168834641F480710160FFF7F8
:1014900003FB824606E000BFFFF7FEFAA0EB0A005E
:1014A00064284ED8DBF80000C005F5D5E0680128B7
:1014B0000AD008B1052813D0286A20F0010028625C
:1014C000286A20F0040002E0286A40F00100286247
:1014D000E06841F2883B98B1FFF7DEFA82460BE004
:1014E000286A40F004002862EEE700BFFFF7D4FA54
:1014F000A0EB0A0159455AD8286A8007F6D50CE0B6
:10150000FFF7CAFA824605E0FFF7C6FAA0EB0A0128
:1015100059454CD8286A8007F6D41FB1E86920F0F5
:101520008050E861E06988B36968C1F381010229EC
:1015300044D00228C6F8608004D0FFF7ADFA044614
:1015400038E034E0FFF7A8FA074604E0FFF7A4FA12
:10155000C01B02282BD828688001F7D4206AB0F578
:10156000803F05D16868A16820F4003008436860B6
:10157000D4E908010843696821F4741108436860DC
:10158000C6F86090FFF788FA044606E025E000BF41
:10159000FFF782FA001B022809D828688001F7D5D6
:1015A0001BE000BFFFF778FA001B022802D90320D6
:1015B000BDE8F88F28688001F4D40EE00128F7D048
:1015C0006868226A00F48031914204D1616A00F4B3
:1015D0007010884201D00120EAE70020E8E700000F
:1015E0000010024000004242800442420C000020F1
:1015F0000070004010B5401EB0F1807F01D3012083
:1016000010BD4FF0E02460610F21601700F065FC11
:101610000020A06107202061002010BDFEE70168C6
:101620004A69D24352050FD46FF480624A610021A7
:1016300040F8301F202242738173026942F0040295
:101640000261017301207047002070472DE9F84FB7
:101650000446006889460B9D01689846174641F488
:10166000806101602068016841F48071016000952B
:101670004FF0011B0022594620460A9B00F0DEF87D
:101680004FF4007A40B120680068C00501D5C4F865
:1016900040A00320BDE8F88F216809F0FE00086132
:1016A0002B46284920460A9A00F0FCF8F0BB206837
:1016B0004169806900902A4620460A9900F070F935
:1016C00040B1206C04283AD12068016841F40071CF
:1016D000016034E0FEB2B8F1010F09D02168380A88
:1016E00008612A4620460A9900F05AF90028E8D1F4
:1016F000206806612A4620460A9900F051F9002820
:10170000DFD12068016841F48071016000950022FA
:10171000594620460A9B00F091F80028B3D1216871
:1017200009F0FF0040F00100086100E007E02B46EF
:10173000044920460A9A00F0B5F80028AAD00120F2
:10174000A8E70000020001002DE9F8430446006804
:101750000D46DDE9089701689846164641F4807108
:1017600001604B4600224FF001112046009700F027
:1017700065F848B120680068C00502D54FF40070D4
:1017800020640320BDE8F883216805F0FE000861AD
:101790003B464A461549204600F084F888B920683F
:1017A0004169806900903A464946204600F0F8F8C1
:1017B00048B1206C042804D12068016841F400710C
:1017C00001600120DEE7F5B2B8F1010F09D0216810
:1017D000300A08613A464946204600F0E1F8002800
:1017E000E7D1206805610020CCE70000020001007D
:1017F00070B516460D4604460DE02046FFF70FFF74
:1018000008B1012070BD681C05D0FFF745F9801BA9
:10181000A84207D835B120684069C0434007ECD4DE
:10182000002070BD002044F8300F20216173A073A8
:10183000216941F0200121612073E2E72DE9F047A1
:101840001E4690460D460446C1F30747DDF820903A
:1018500008E0701C06D0FFF71FF9A0EB0900B042AA
:101860000FD876B12068012F18D0806925EA0000D2
:101870000004000C14D000214145EAD00020BDE84E
:10188000F087002044F8300F20216173A073216994
:1018900041F02001216120730120F0E74069E5E774
:1018A0000121E9E72DE9F0479A4691460E460446A4
:1018B00000254FF02008C1F3074725E02068406964
:1018C000C043400514D42068016841F400710160F0
:1018D00021686FF480604861256384F83D8084F856
:1018E0003E50206C40F00400206484F83C501FE01F
:1018F000B9F1FF3F08D0FFF7CFF8A0EB0A01494547
:101900000CD8B9F1000F09D02068012F13D08069DD
:1019100026EA00000004000C0BD0CFE744F8305F4B
:1019200084F80D80A573206940F0200020612573A4
:101930000120BDE8F0874069EAE72DE9F041002584
:1019400090460E460446202717E04069C043C00673
:101950000CD454F8301B6FF01000486144F8105953
:101960006777A577206A2062257717E0FFF794F85C
:10197000A0EB0800B04208D83EB120684169C943D5
:101980004906E2D40020BDE8F08144F8305F677377
:10199000A573206940F02000206125730120F2E743
:1019A00070B516460D4604460DE02046FFF737FE9B
:1019B00008B1012070BD681C05D0FFF76DF8801BD1
:1019C000A84207D835B120684069C0430006ECD46E
:1019D000002070BD002044F8300F20216173A073F7
:1019E000216941F0200121612073E2E72DE9FF5FC9
:1019F00096B024AD044695E88301D4E90823089302
:101A00000692FEF7EAFC3A464346FEF7ECFCD4E9C0
:101A10000623FEF741FC07911290D4E910A3524629
:101A2000384641460993FEF7DEFCCDE90001D4E9D2
:101A30000C939B464A46FEF7D0FCD4E90E23CDE931
:101A40000B32FEF7CAFCD4E90023FEF725FC3A4628
:101A50004346FEF7C8FCD4E90A23FEF71DFC054601
:101A60000E46DDE900014A465B46FEF7B9FC8B46AF
:101A70000490DDE90001DDE90B32FEF7B1FC0D91C8
:101A80000090D4E902013A464346FEF7ACFC5246C8
:101A9000099BFEF701FCCDE90E01D4E90423284699
:101AA0003146FEF7F9FB80468A4602460B46284639
:101AB0003146FEF70AFD81460F46424653460D99D0
:101AC0000098FEF702FD80468A46DDE91801079B73
:101AD000129AFEF782FC0B914A463B461090FEF7A5
:101AE00082FC079B129AFEF7D7FBC4E90601079117
:101AF0001290404651460B9B109AFEF774FC089BCF
:101B0000069AFEF7C9FBC4E90801049806902A4624
:101B1000334648463946FEF766FC2A463346FEF70A
:101B20005FFCC4E90A015B4648463946069AFEF75F
:101B30005AFC5B46049AFEF753FCC4E90C012A46A2
:101B4000334640465146FEF74EFC0D9B009AFEF789
:101B500047FCC4E90E015B4640465146069AFEF733
:101B600042FCDDE90E23FEF73BFCC4E910010799B6
:101B700012981AB0BDE8F09F2DE9F04186B080467A
:101B8000012504A8CDE9000564242B467522D02147
:101B900002944046FFF74AF89DF81000682803D0E9
:101BA000012006B0BDE8F081002703AE8DF80C706F
:101BB0000096CDE9015401236B22D0214046FFF766
:101BC0005DF907208DF80C000096CDE90154012342
:101BD0001922D0214046FFF751F98DF80C7000967C
:101BE000CDE9015401231C22D0214046FFF746F9DC
:101BF0008DF80C700096CDE9015401231B22D021F1
:101C00004046FFF73BF90020CBE700002DE9F04FFD
:101C100089B00C4664230E2204A98DE80E0001232E
:101C20003B22D021FFF702F8BDF8100040BA00B205
:101C30002080BDF8121049BA09B261808946BDF80A
:101C4000141049BA09B2A1808846BDF8161049BAE5
:101C50000FFA81FABDF8181049BA0FB22784BDF8FF
:101C60001A1049BA0EB26684BDF81C1049BA0DB2FA
:101C7000A584FEF7B9FC6FF00D0B5A46FEF794FCF5
:101C8000C4E902014846FEF7AFFC5A46FEF78CFC59
:101C9000C4E904014046FEF7A7FC0022614BFEF7B1
:101CA00014FCC4E906015046FEF795FC5E49FEF7B8
:101CB000B5FA5E49FEF75AFA20643846FEF794FCFE
:101CC0005B4F00223B46FEF700FCC4E90A013046A8
:101CD000FEF78AFC00223B46FEF7F7FBC4E90C0145
:101CE0002846FEF781FC00223B46FEF7EEFBC4E9E6
:101CF0000E01FEF7D1FE4F4D2968401AFEF785FC14
:101D000000224D4BFEF7E1FB81468A46FEF7C4FEFA
:101D10002860B4F90010B4F90400494300FB001036
:101D2000FEF762FC00F086FB002205460E461346D5
:101D3000FEF778FC10D0B4F90200FEF755FC2A46F5
:101D40003346FEF7C2FB00F051F93C4A3C4BFEF72C
:101D50004AFB0746884601E00027B846B4F904006C
:101D6000FEF742FC0646B4F900000D464042FEF77D
:101D70003BFC32462B4600F049FA304A304BFEF726
:101D800032FBDFF8C0B005460E4600225B46FEF788
:101D900049FC06D2D4E9140100222B4BFEF75AFC71
:101DA0000DD30022284B28463146FEF753FC0DD2B6
:101DB000D4E9140100225B46FEF734FC06D21D482C
:101DC0005030C0E90656C4E914560DE0CDE9029A38
:101DD000D4E90C01CDE9000116482A4633465030BB
:101DE000FFF704FEC4E91401D4E9140121F0004115
:101DF0000022154BFEF72EFC03D2E16A81F0004170
:101E0000E162CDE9029AD4E90C01CDE9000109486B
:101E10003A4643460830FFF7E9FDC4E9120109B02C
:101E2000BDE8F08F0029CC400000AA43B81E124242
:101E3000006060401000002000408F40F8C1631A2D
:101E4000DCA54C40008056C000805640FEE7FEE70F
:101E500070477047FFF7D8B830B58FB02821684673
:101E6000FEF779F914210AA8FEF775F90121080493
:101E700000240491CDE90010CDE908040294022564
:101E800007956846FFF726FA08B172B6FEE70F20FD
:101E90000A90CDE90B540D9400210AA80E94FFF787
:101EA0003DF9002801D072B6FEE70FB030BD704793
:101EB000FEE7490050EAC12018BF04204A0D18BFB0
:101EC00040F0010040F2FF72B2EB515F08BF40F0FA
:101ED0000200012808BF052070470907090E0028E5
:101EE00004DB00F1E02080F80014704700F00F00E0
:101EF00000F1E02080F8141D70472DE9F0414F1EDD
:101F000000EBC7010446D1E9000115461E4637F033
:101F100006020DD02A463346FEF765FA7F1E04EB13
:101F2000C703D3E90023FEF7B7F937F00602F1D172
:101F3000022F25D0042F13D0062F18BFBDE8F08143
:101F40002A463346FEF74FFAD4E90A23FEF7A4F9EE
:101F50002A463346FEF747FAD4E90823FEF79CF9F0
:101F60002A463346FEF73FFAD4E90623FEF794F9F2
:101F70002A463346FEF737FAD4E90423FEF78CF9F4
:101F80002A463346FEF72FFAD4E90223FEF784F9F6
:101F90002A463346FEF727FAD4E90023BDE8F0418C
:101FA000FEF77AB90122FEF7FFBAFEF775B9000015
:101FB000024A00201107FEF7F7BA000001FDFFFFFB
:101FC00002E008C8121F08C1002AFAD17047704702
:101FD000002001E001C1121F002AFBD17047000060
:101FE0000149086070470000A80000202DE9F84F63
:101FF00004460D4621F0004000917349814211DCF6
:102000007249884201DC06D12CB120462946BDE840
:10201000F84FFFF7C7BF6E48002DCCBF6D496E4922
:10202000BDE8F88F6D49814211DD6D498142D8BF0D
:102030004FF0FF366DDD20462946FFF73AFF0428B2
:1020400008BFFFF7B5FF20462946BDE8F88F654970
:10205000654F25F00045814233DD6449814219DD39
:10206000002632464FF0804320462946FEF714F9F9
:1020700080468A46012220462946FEF795FA00222C
:102080003B46FEF7AAF942465346FEF71EFA0446BF
:102090000D463EE001260022BA463B462046294630
:1020A000FEF7FAF880460F4600225346204629469E
:1020B000FEF793F942463B46FEF707FA04460D4603
:1020C00027E04B4981421BDDDFF828A102260022D0
:1020D000534620462946FEF786F900223B46FEF786
:1020E000DBF880460F460022534620462946FEF77D
:1020F00074F942463B46FEF7E8F904460D4608E00F
:10210000032622462B4600203B49FEF7DEF9044613
:102110000D4622462B4610461946FEF764F98B46BB
:10212000824602460B46FEF75EF9074602463348F2
:1021300088460B4606217844FFF7DFFE52465B4691
:10214000FEF751F982462E488B463A464346052112
:102150007844FFF7D2FE3A464346FEF744F902467A
:102160000B46002E504659460CDAFEF795F82246EB
:102170002B46FEF738F901B022462B46BDE8F04F5A
:10218000FEF72EB9FEF788F822462B46FEF72BF90C
:102190001C4A7A4402EBC603D3E90023FEF71DF97B
:1021A00022462B46FEF719F9174A7A4402EBC6037A
:1021B000D3E90023FEF714F9009A002AB8BF81F092
:1021C0000041BDE8F88F0000000010440000F07FDF
:1021D000182D4454FB21F93FFB21F9BF0000DC3FDF
:1021E0000000203E0000F33F0000F03F0000E63F0B
:1021F000008003400000F83F0000F0BFC60300006D
:102200008403000022030000EA0200002DE9F04DE3
:102210009446CCF1000423F000464CEA0404594FE4
:1022200046EAD4749A46884621F00042BC4206D859
:10223000454240EA050442EAD474BC4204D9BDE8F0
:10224000F04D6246FFF7B1BEAAF14055A5F17F659A
:1022500055EA0C040BD0022404EAAA744A4DDFF8B4
:102260002CE144EAD87452EA000B04D00CE0BDE83B
:10227000F04DFFF7BBBE002C14BF012CBDE8F08D64
:10228000022C30D0032C32D056EA0C0B0AD0BE42BE
:1022900020D1BA4209D126F0804622F0804233464E
:1022A000114617E000291ADB25E0DFF8E4B0FB4413
:1022B000002C04BFDBE90001BDE8F08D012C02BF5A
:1022C000DBE9000181F00041BDE8F08D022C0AD06D
:1022D000032C0CD0BA4212D1B8F1000F0BDA2A4805
:1022E0002C49BDE8F08D28462B49BDE8F08D2846E5
:1022F0007146BDE8F08D24482849BDE8F08D921B59
:1023000012153C2AC4BF204F244E10DCBAF1000F36
:10231000BEBF12F13C0F00273E4608DB6246FEF7C7
:10232000D4F821F00041FFF761FE07460E4694B154
:10233000012C08BF86F000460DD0194A194B022C1B
:102340003846314615D0FEF748F82A46BDE8F04D2C
:10235000114BFEF742B80022134638463146FEF7CD
:1023600061F904BF0220FFF73BFE38463146BDE865
:10237000F08DFEF732F82A46BDE8F04D064BFEF729
:102380002FB800000000F07F182D4454FB2109C035
:102390007E020000FB21F9BFFB210940FB21F93F30
:1023A000075C143326A6A13C08B5FEF735FEFFF7FF
:1023B00053FD1C48816941F020018161816901F070
:1023C00020010091816941F004018161816901F07E
:1023D00004010091816941F008018161806912491D
:1023E00000F00800009011484FF48042016010494D
:1023F000416000218160C0E9031241618161C161D6
:102400000162FEF74FFB08B172B6FEE70748FFF71F
:10241000B3FB0128FAD0054904485831FFF7F6FB11
:10242000F9E700000010024000540040B000002016
:10243000A08601002DE9F04106460F46FEF7D7F9C8
:10244000041E0D4618BF0120284320F00040C0F1B3
:102450007F6000F1E040C00F0ED0301C18BF01209B
:10246000384320F00040C0F17F6000F1E040C00F31
:1024700004BF0120FFF7B4FD20462946BDE8F081E6
:102480000000000000000000010203040607080924
:1024900000000000010203044FBB610567ACDD3F93
:1024A000182D4454FB21E93F9BF681D20B73EF3F7B
:1024B000182D4454FB21F93FE2652F227F2B7A3CF3
:1024C000075C143326A6813CBDCBF07A8807703CAC
:1024D000075C143326A6913CC4EB98999999C9BF1F
:1024E000711623FEC671BCBF6D9A74AFF2B0B3BF54
:1024F0009AFDDE522DDEADBF2F6C6A2C44B4A2BF14
:102500000D5555555555D53FFF8300922449C23F7F
:102510006E204CC5CD45B73F513DD0A0660DB13FB3
:10252000EB0D76244B7BA93F11DA22E33AAD903FC5
:1025300000000000000000005825000800000020F6
:10254000AC000000C01F000804260008AC000020FA
:10255000B4040000D01F00080100000010000000BB
:10256000000000000024F400000000000000000053
:10257000000000E04D62503F000000C07493683FCF
:10258000000000E051B89E3F000000000000000085
:10259000000000000000000000000000000000003B
:1025A000000000000000000000000000000000002B
:1025B0000000000000000000000000E04D62503FFD
:1025C000000000C07493683F000000E051B89E3FD7
:1025D00000000000000000000000000000000000FB
:1025E00000000000000000000000000000000000EB
:1025F00000000000000000000000000000000000DB
:0426000000000000D6
:04000005080000ED02
:00000001FF
