:020000040800F2
:100000008008002005010008A5100008410E000826
:10001000A31000089D010008F31300080000000071
:100020000000000000000000000000009513000820
:100030009F01000800000000A710000897130008A7
:100040001F0100081F0100081F0100081F01000810
:100050001F0100081F0100081F0100081F01000800
:100060001F0100081F0100081F0100081F010008F0
:100070001F0100081F0100081F0100081F010008E0
:100080001F0100081F0100081F0100081F010008D0
:100090001F0100081F0100081F0100081F010008C0
:1000A0001F0100081F0100081F0100081F010008B0
:1000B0001F0100081F0100081F0100081F010008A0
:1000C0001F0100081F0100081F0100081F01000890
:1000D0001F0100081F0100081F0100081F01000880
:1000E0001F0100081F0100081F010008DFF810D0E1
:1000F00000F042F800480047BD150008AFF300804B
:10010000800800200648804706480047FEE7FEE7D3
:10011000FEE7FEE7FEE7FEE7FEE7FEE7FEE7FEE7B7
:10012000F1130008ED000008D2B201E000F8012B45
:10013000491EFBD270470022F6E710B513460A4667
:1001400004461946FFF7F0FF204610BD30B50B46B8
:10015000014600202022012409E021FA02F59D42F7
:1001600005D303FA02F5491B04FA02F52844151ECB
:10017000A2F10102F1DC30BD064C074D06E0E0685B
:1001800040F0010394E8070098471034AC42F6D3DE
:10019000FFF7B0FF002C0008202C0008FEE7704796
:1001A00070B5044600F0FEF80546601C02D0044815
:1001B0000078044400F0F6F8401BA042FAD370BD6A
:1001C000000000202DE9F84FDFF8B891002409F174
:1001D000040A0AF1040B23460F270BF1040EC9E0B1
:1001E0000125A5402A40AA427DD1674ED1F804C01E
:1001F000ACEB0608B44532D014DCBCF1030F3AD0A6
:1002000009DCBCF1000F2AD0BCF1010F1CD0BCF1FD
:10021000020F31D11DE0BCF1110F17D0BCF1120F4C
:100220002AD119E0B8F5881F19D006DCB8F5803F4F
:1002300015D0B8F5801F1FD111E0B8F5001F0ED002
:10024000B8F5041F18D10AE0CB6815E0CB681B1D78
:1002500012E0CB6808330FE0CB680C330CE08B68FE
:100260002BB1012B4FF0080303D0456104E00423B8
:1002700002E0056100E00023FF2A01D8064601E004
:1002800000F104064FEA840501D9A5F12005D6F84E
:10029000008007FA05FC28EA0C0803FA05F548EA8D
:1002A0000508C6F800804D68ED0062D5374DAE698F
:1002B00046F00106AE61AD6924F0030605F00105C4
:1002C0000095334D06EB050CDCF80850A607360FF9
:1002D00007FA06F825EA0805DFF8B880404503D19B
:1002E0004FF0000817E044E0DFF8AC80404502D151
:1002F0004FF001080FE0DFF8A480404502D14FF035
:10030000020808E0DFF89880404502D14FF003086A
:1003100001E04FF0040808FA06F848EA0508CCF8AE
:1003200008804D68D9F80060ED034D4601D51643AD
:1003300000E096432E604D68DAF80060AD03554644
:1003400001D5164300E096432E604D68DBF800604F
:10035000ED025D4601D5164300E096432E604D68E0
:10036000DEF80060AD02754601D5164300E0964305
:100370002E60641C0D682A46E5407FF431AFBDE86D
:10038000F88F00000004014000001110001002402E
:100390000000014000080140000C01400010014035
:1003A00000140140014880687047000000000020F0
:1003B00070B5040025D094F83D00002520B984F8DC
:1003C0003C50204600F004FA242084F83D002068C8
:1003D000016821F0010101602068016841F40041D9
:1003E00001602068016821F40041016000F03EFBDB
:1003F0004D4A6168914201D84C4900E04C4988421D
:1004000001D2012070BD4B492368B0FBF1F15E6859
:1004100026F03F060E435E606368934206D94FF4B0
:10042000967359434FF47A73B1FBF3F12368491C77
:100430001E6A26F03F06314319626168914210D866
:100440004900401EB0FBF1F2521CC2F30B02042A19
:1004500001D2042022E0B0FBF1F0401CC0F30B00FD
:100460001CE0A268F2B301EBC10303EB0116431ECB
:10047000B3FBF6F35B1C43F480431B0549D092B3F6
:1004800001EBC10202EB0111401EB0FBF1F0401C78
:10049000C0F30B0040F4804040F400402168CA697A
:1004A0004CF6FF739A431043C861D4E90710014327
:1004B0002068026822F0C00211430160D4E9030100
:1004C00001432068826848F2FF339A4311438160F8
:1004D000D4E9050108432168CA6822F0FF021043ED
:1004E000C86001E00EE016E02068016841F00101FB
:1004F00001602564202084F83D00256384F83E5087
:10050000002070BD01EB4106431EB3FBF6F35B1CFC
:10051000B3E70120C2E701EB4101401EB0FBF1F05F
:10052000401CC0F30B00B7E7A086010080841E00CA
:1005300000093D0040420F002DE9FF4F81B0894680
:100540000446FFF72FFF054694F83D004FF00108E1
:1005500020287DD11923012250492046009500F022
:10056000FBFC002874D194F83C00012870D00120D5
:1005700084F83C0020680168C90703D1016841F094
:10058000010101602068016821F4006101602420FC
:1005900084F83D00002626644148E0624FF0011BCC
:1005A00020272068016841F48071016000950022D5
:1005B00059462046049B00F0CFFC50B120680068EB
:1005C000C00502D54FF400702064032005B0BDE8DB
:1005D000F08F216809F0FE000861FFF7E3FE216853
:1005E000054648694969C0F34000C1F380214FF0D6
:1005F000A00A0FE0FFF7D6FE411B0498814200D805
:1006000008B984F83DA0216848694969C0F34000F1
:10061000C1F3802194F83D20A02A02D008B9002916
:10062000E8D084F83D7020684169C943890716D431
:10063000016841F4007101602068416980691923F3
:10064000012216492046009500F086FCB8B900E06A
:1006500021E084F83D7084F83C600020B6E7016832
:1006600041F40071016021686FF4806048611923D2
:1006700001220A492046009500F06EFC08B10120D5
:10068000A4E7039808F1010880458AD384F83D70F7
:1006900084F83C60F3E7022098E7000002001000B5
:1006A0000000FFFF2DE9F84F1F4690468A4604469A
:1006B000DDF82890FFF776FE054694F83D002028E7
:1006C0007FD11923012240492046009500F044FCC7
:1006D000002876D194F83C00012872D0012084F8DB
:1006E0003C0020680168C90703D1016841F001019D
:1006F00001602068016821F400610160212084F814
:100700003D00102084F83E0000262664C4F82480B2
:100710006785608D20852D48E0622B464A4651460C
:10072000204600F0A5FB90B92068416980690090DF
:1007300036E02A464946204600F08DFC50B1206C38
:10074000042804D12068016841F40071016001208F
:10075000BDE8F88F606A216800780861606A401C13
:100760006062618D491E6185218D491E89B2218596
:1007700022685369DB435B070BD451B100781061E9
:10078000606A401C6062608D401E6085208D401E46
:1007900020852A464946204600F0B8FB0028CED1E5
:1007A000208D0028C5D154F83D0B016841F400713B
:1007B0000160202004F81E09E67766770020C7E76D
:1007C000FFE70220C4E70000020010000000FFFF66
:1007D00010B586B00021009101910291039100684B
:1007E0000F4988421AD10F4CA06940F00800A0615F
:1007F000A069694600F008000490C0200090122013
:100800000190032003900848FFF7DCFCE06940F406
:100810000010E061E06900F40010049006B010BD23
:100820000054004000100240000C01400248816862
:10083000027811448160704700000020074810B51D
:10084000016841F010010160032000F067F800200A
:1008500000F006F800F024F8002010BD002002404F
:1008600070B50D4D04464FF47A712878B1FBF0F065
:100870000A490968B1FBF0F000F0CEFA48B9102C33
:1008800007D200222146501E00F028F800206C609C
:1008900070BD012070BD0000000000200C00002091
:1008A0000C4808B5816941F001018161816901F05D
:1008B00001010091C16941F08051C161C06900F03E
:1008C000805000900448416821F0E06141F00071DF
:1008D000416008BD0010024000000140F0B40E4B22
:1008E0001B680C46C3F30223C3F10705042D00D98E
:1008F0000425191D072901D2002300E0DB1E012673
:1009000006FA05F1491E214099409E40761E164088
:100910003143F0BC00F082BD0CED00E0064900F070
:10092000070208684FF6FF03184040EA0220034A16
:1009300010430860704700000CED00E00000FA056D
:100940002DE9F0470F46050061D0434E306800F0B6
:100950000700B84209D2306820F007003843306001
:10096000306800F00700B84251D128683B4C81073D
:1009700012D5400703D5606840F4E06060602878D5
:10098000000703D5606840F4605060606068A96843
:1009900020F0F000084360602878C00728D068681D
:1009A000012810D02168022810D0890700292EDAEA
:1009B000616821F0030101436160FFF7F3FC8046A9
:1009C00041F288390DE021688903EFE78901EDE7FD
:1009D000FFF7E8FCA0EB0801494502D90320BDE878
:1009E000F0876068696800F00C00B0EB810FEFD110
:1009F000306800F00700B8420BD9306820F00700DB
:100A000038433060306800F00700B84201D0012060
:100A1000E5E72878400705D56068E96820F4E060DC
:100A2000084360602878000706D56068296920F4CB
:100A3000605040EAC100606000F028F86168084A30
:100A4000C1F30311515CC8400649086006480068BC
:100A5000FFF706FF0020C2E700200240001002401E
:100A6000201700080C00002004000020044805495D
:100A700000684968044AC1F30221515CC8407047CC
:100A80000C000020001002403017000812A185B0B1
:100A90000FC98DE80F0014A0144A00680490516833
:100AA000134801F00C03042B10D0082B0ED1C1F316
:100AB0008343C9031DF803000AD5516804AAC1F392
:100AC0004041515C0A4A5043B0FBF1F005B0704719
:100AD00008494843FAE7000002030405060708092D
:100AE0000A0B0C0D0E0F1010010200000010024046
:100AF00000127A0000093D002DE9F84F040070D083
:100B00002078C04DC00749D06868C0F38100012833
:100B100007D06868C0F38100022809D16868C00363
:100B200006D52868800339D560680028E7D035E00D
:100B30006068B0F5803F0BD010B1B0F5A02F11D098
:100B4000286820F480302860286820F4802002E0A3
:100B5000286840F480302860606890B1FFF722FC7C
:100B600006460AE0286840F480202860F0E700BFCD
:100B7000FFF718FC801B642873D828688003F7D51A
:100B80000CE0FFF70FFC064605E000BFFFF70AFC8C
:100B9000801B6428F0D828688003F7D420789A4E08
:100BA00080074FF001094FF0000839D5686810F050
:100BB0000C0F07D06868C0F38100022809D168686B
:100BC000C00306D42868800714D52069012808D1FD
:100BD00010E02069B0B1C6F80090FFF7E3FB0746CC
:100BE00005E00AE1FFF7DEFBC01B0228C4D8286835
:100BF0008007F7D52868616920F0F80040EAC10055
:100C000028600DE0C6F80080FFF7CCFB074604E043
:100C1000FFF7C8FBC01B022823D828688007F7D439
:100C2000207800072CD57948A169D9B1C0F8009087
:100C3000FFF7B8FB074604E0FFF7B4FBC01B022830
:100C40000FD8686A8007F7D571484FF4FA510068E9
:100C5000B0FBF1F0009000BF0098411E0091FAD265
:100C60000EE080E0C0F80080FFF79CFB074604E040
:100C7000FFF798FBC01B022875D8686A8007F7D475
:100C80002078400760D5E8690027C00008D4E869EB
:100C900040F08050E861E869012700F08050009042
:100CA0005C480168C90513D40168834641F480712A
:100CB0000160FFF777FB824606E000BFFFF772FB9B
:100CC000A0EB0A0064284ED8DBF80000C005F5D57B
:100CD000E06801280AD008B1052813D0286A20F05E
:100CE00001002862286A20F0040002E0286A40F02F
:100CF00001002862E06841F2883B98B1FFF752FB9F
:100D000082460BE0286A40F004002862EEE700BF4C
:100D1000FFF748FBA0EB0A0159455AD8286A80071B
:100D2000F6D50CE0FFF73EFB824605E0FFF73AFB05
:100D3000A0EB0A0159454CD8286A8007F6D41FB1A8
:100D4000E86920F08050E861E06988B36968C1F320
:100D50008101022944D00228C6F8608004D0FFF740
:100D600021FB044638E034E0FFF71CFB074604E0B3
:100D7000FFF718FBC01B02282BD828688001F7D486
:100D8000206AB0F5803F05D16868A16820F4003082
:100D900008436860D4E908010843696821F47411C4
:100DA00008436860C6F86090FFF7FCFA044606E066
:100DB00025E000BFFFF7F6FA001B022809D82868D3
:100DC0008001F7D51BE000BFFFF7ECFA001B0228FB
:100DD00002D90320BDE8F88F28688001F4D40EE022
:100DE0000128F7D06868226A00F48031914204D16A
:100DF000616A00F47010884201D00120EAE7002007
:100E0000E8E7000000100240000042428004424235
:100E10000C0000200070004010B5401EB0F1807F33
:100E200001D3012010BD4FF0E02460610F21601755
:100E300000F0F4FA0020A06107202061002010BD1E
:100E4000FEE701684A69D24352050FD46FF480620D
:100E50004A61002140F8301F2022427381730269E9
:100E600042F00402026101730120704700207047C4
:100E7000F8B50446C06A1E460D461746082807D036
:100E8000012805D010F5803F02D0206B122804D134
:100E90002068016841F480710160134600224FF020
:100EA00001112046009600F057F840B12068006814
:100EB000C00502D54FF4007020640320F8BD2069FE
:100EC000B0F5804F0ED00620216800EAD51040F022
:100ED000F000086133463A460B49204600F070F8AE
:100EE00078B902E005F0FE0000E0E8B22168086190
:100EF000054933463A46891F204600F061F800282C
:100F0000DCD00120F8BD00000800010070B51646D5
:100F10000D4604460DE02046FFF793FF08B101207F
:100F200070BD681C05D0FFF73DFA801BA84207D8AA
:100F300035B120684069C0434007ECD4002070BD43
:100F4000002044F8300F20216173A073216941F023
:100F5000200121612073E2E72DE9F0471E4690460B
:100F60000D460446C1F30747DDF8209008E0701CE9
:100F700006D0FFF717FAA0EB0900B0420FD876B100
:100F80002068012F18D0806925EA00000004000CB9
:100F900014D000214145EAD00020BDE8F0870020B0
:100FA00044F8300F20216173A073216941F02001C2
:100FB000216120730120F0E74069E5E70121E9E7BD
:100FC0002DE9F0479A4691460E46044600254FF01B
:100FD0002008C1F3074725E020684069C043400569
:100FE00014D42068016841F40071016021686FF435
:100FF00080604861256384F83D8084F83E50206C11
:1010000040F00400206484F83C501FE0B9F1FF3F39
:1010100008D0FFF7C7F9A0EB0A0149450CD8B9F190
:10102000000F09D02068012F13D0806926EA000044
:101030000004000C0BD0CFE744F8305F84F80D803B
:10104000A573206940F02000206125730120BDE8D0
:10105000F0874069EAE770B516460D4604460DE094
:101060002046FFF7EEFE08B1012070BD681C05D0D8
:10107000FFF798F9801BA84207D835B1206840696E
:10108000C0430006ECD4002070BD002044F8300FAF
:1010900020216173A073216941F020012161207337
:1010A000E2E7FEE7FEE7704710B5002000F024F805
:1010B000BDE8104000F04AB970B5802813D240292D
:1010C00011D20B4B012401F007051E79AC40094BEE
:1010D000C90800EBC1100EB132B101E0012A03D002
:1010E000195CA143195470BD195C2143FAE7000053
:1010F000200000207C00002028B1FF224FF48061F6
:101100000248FFF711B80022F8E700007C00002039
:10111000014A1080518070472000002010B500F077
:10112000CDFA44F62063012278215448FFF704FAEF
:1011300008B1002010BD40F6C210401EFDD1AE2205
:101140000021782000F0C0FA20220021782000F051
:10115000BBFA10220021782000F0B6FAB02200215C
:10116000782000F0B1FAC8220021782000F0ACFA13
:1011700000221146782000F0A7FA102200217820E2
:1011800000F0A2FA40220021782000F09DFA81228E
:101190000021782000F098FAFF220021782000F04A
:1011A00093FAA1220021782000F08EFAA6220021D5
:1011B000782000F089FAA8220021782000F084FA33
:1011C0003F220021782000F07FFAA422002178201D
:1011D00000F07AFAD3220021782000F075FA00227C
:1011E0001146782000F070FAD5220021782000F016
:1011F0006BFAF0220021782000F066FAD922002153
:10120000782000F061FA22220021782000F05CFAB8
:10121000DA220021782000F057FA122200217820EB
:1012200000F052FADB220021782000F04DFA202253
:101230000021782000F048FA8D220021782000F06B
:1012400043FA14220021782000F03EFAAF22002158
:10125000782000F039FA2E220021782000F034FAAC
:101260000020FFF749FF00F071F8054800210180D8
:10127000418001214171084610BD00002800002076
:10128000200000202DE9F047814625480D46924672
:1012900001882A781144802905D2804640886978DF
:1012A0000844402802D30020BDE8F08700262AE049
:1012B000A9F1200101FB00606A68002432F8107077
:1012C0001DE000BF07FA04F0000409D5B8F80210C9
:1012D000B8F800003144204489B280B252460BE095
:1012E000BAF1000F1AD00022B8F80210B8F80000C6
:1012F0003144204489B280B2FFF7DEFE641C2878B6
:10130000A042DFD8761C6878B042D1D8B8F8001077
:101310002A7848461144A8F80010C5E70122E3E7FF
:101320002000002070B515460E46044609E02A4606
:101330003146FFF7A7FF2178884201D0C8B270BDBF
:10134000641C20780028F2D1C0B270BD70B5104D79
:10135000002400BF04F1B000C2B20021782000F0E8
:10136000B3F900221146782000F0AEF910220021D6
:10137000782000F0A9F905EBC412802340217820E1
:1013800000F0B2F9641CE4B2082CE3D370BD000095
:101390007C0000207047FFF749BA30B58FB0282194
:1013A0006846FEF7C8FE14210AA8FEF7C4FE012114
:1013B000080400240491CDE90010CDE9080402944A
:1013C000022507956846FFF797FB08B172B6FEE75E
:1013D0000F200A90CDE90B540D9400210AA80E9419
:1013E000FFF7AEFA002801D072B6FEE70FB030BDAD
:1013F0007047FEE70FB4084B10B504A902AA039882
:1014000000F02CF8044602A9002000F0D1F8204694
:1014100010BC5DF814FB0000B11500080907090EA7
:10142000002804DB00F1E02080F80014704700F091
:101430000F0000F1E02080F8141D704702E008C89A
:10144000121F08C1002AFAD170477047002001E03E
:1014500001C1121F002AFBD1704700002DE9FF4F88
:1014600089B09B460446002506E025280BD05A4645
:101470000B999047641C6D1C20780028F5D10DB0A5
:101480002846BDE8F08F0027B8460122474900E012
:10149000074314F8013F203B02FA03F00842F7D15A
:1014A00020782E2819D114F8010F47F004072A28B4
:1014B0000ED06FF02F022078A0F1300109290CD84E
:1014C00008EB880102EB410100EB0108641CF2E724
:1014D0000A98641C50F8048B0A9020780028CED01B
:1014E000642808D0692806D075281ED05A460B9962
:1014F00090476D1C58E00A994FF00A0901C90A91FA
:10150000002802DA40422D2102E0390504D52B21C2
:101510008DF82010012103E0F90704D02021F7E71E
:101520008A4608AE0DE00021FAE70A994FF00A0951
:1015300001C90A91F7E74946FEF708FE303106F87F
:10154000011D0028F7D1ADEB060000F12009780756
:1015500001D44FF00108C84502DDA8EB090000E006
:1015600000208046002706E008A85A46C05D0B9977
:1015700090476D1C7F1C5745F6DB04E030205A462F
:101580000B9990476D1CB8F10001A8F10108F5DC3A
:1015900005E016F8010B5A460B9990476D1CB9F1FE
:1015A0000001A9F10109F4DC641C65E709280100C8
:1015B0000A68531C0B6010707047000086B0FFF77C
:1015C0003DF9FFF7EAFE3148816941F02001816170
:1015D000816901F020010591816941F00401816177
:1015E000816901F004010591816941F0080181617F
:1015F0008069274900F00800059026484FF4804292
:1016000001602549416000218160C0E90312416108
:101610008161C1610162FEF7CBFE08B172B6FEE7DF
:10162000FFF77CFD0A210846FFF772FD01221B49E6
:101630001BA0FFF777FE1E210A20FFF769FD01229C
:1016400019491AA0FFF76EFEFFF780FE41F28830BD
:10165000FEF7A6FD00244FF4FA7500BFFFF724FD46
:101660000A210846FFF754FD224613A16846FFF7FA
:10167000C1FE012209496846FFF754FEFFF766FEE6
:101680002846641CFEF78CFDE8E7000000100240CD
:101690000054004028000020801A0600100000209E
:1016A00048454C4C4F00000018000020574F524C4A
:1016B0004420212100000000256400000148401E54
:1016C000FDD1704790D003001CB502238DF80410A3
:1016D0000A2100918DF80520014601AA0148FEF774
:1016E000E1FF1CBD2800002070B5C2B000248DF8B9
:1016F000041001A904E0155D0E19641C7570E4B2B4
:101700009C42F8D30A2100915B1C01469BB201AABE
:101710000248FEF7C7FF42B070BD0000280000205D
:101720000000000000000000010203040607080991
:10173000000000000102030400000000000000009F
:101740000000000000000000000000000010001079
:101750000010001000100010000000100000000039
:101760000028002800280000000000000000000001
:101770000000000000240024007C00240048007CBD
:1017800000480048000000000038005400500038B5
:1017900000140054005400380010000000200054D1
:1017A0000058003000280054001400080000000019
:1017B00000100028002800100034004800480034C1
:1017C00000000000001000100010000000000000E9
:1017D00000000000000000000008001000200020B1
:1017E0000020002000200020001000080020001031
:1017F0000008000800080008000800080010002089
:101800000010003800100028000000000000000058
:10181000000000000000000000100010007C00101C
:1018200000100000000000000000000000000000A8
:101830000000000000000010001000100000000078
:101840000000000000000038000000000000000060
:101850000000000000000000000000000000001078
:101860000000000000080008001000100010001028
:101870000020002000000000003800440044005414
:101880000044004400440038000000000010003014
:1018900000500010001000100010001000000000A8
:1018A0000038004400440004000800100020007CC0
:1018B0000000000000380044000400180004000488
:1018C000004400380000000000080018002800282C
:1018D0000048007C0008000800000000007C004078
:1018E00000400078000400040044003800000000BC
:1018F00000380044004000780044004400440038B0
:1019000000000000007C000400080010001000200F
:10191000002000200000000000380044004400388F
:101920000044004400440038000000000038004437
:1019300000440044003C0004004400380000000063
:101940000000000000100000000000000000001077
:101950000000000000000000000000100000000077
:10196000000000100010001000000000000C00300B
:1019700000400030000C00000000000000000000EB
:101980000000007C0000007C00000000000000005F
:101990000000000000600018000400180060000053
:1019A000000000000038004400040008001000108F
:1019B000000000100000000000380044004C0054FB
:1019C000005C0040004000380000000000100028CB
:1019D000002800280028007C00440044000000008B
:1019E000007800440044007800440044004400783B
:1019F000000000000038004400400040004000406B
:101A0000004400380000000000700048004400441A
:101A1000004400440048007000000000007C0040CA
:101A20000040007C004000400040007C00000000BE
:101A3000007C004000400078004000400040004032
:101A4000000000000038004400400040005C0044FA
:101A50000044003800000000004400440044007CC2
:101A6000004400440044004400000000003800101E
:101A700000100010001000100010003800000000DE
:101A800000040004000400040004000400440038C2
:101A90000000000000440048005000600050004872
:101AA00000480044000000000040004000400040AA
:101AB000004000400040007C000000000044006C3A
:101AC000006C005400440044004400440000000046
:101AD00000440064006400540054004C004C004476
:101AE000000000000038004400440044004400446A
:101AF0000044003800000000007800440044004426
:101B00000078004000400040000000000038004421
:101B10000044004400440044005400380004000025
:101B20000078004400440044007800480048004425
:101B300000000000003800440040003000080004AD
:101B40000044003800000000007C0010001000106D
:101B500000100010001000100000000000440044BD
:101B600000440044004400440044003800000000E9
:101B70000044004400440028002800280010001001
:101B80000000000000440044005400540054006C65
:101B90000028002800000000004400280028001051
:101BA0000010002800280044000000000044004409
:101BB0000028002800100010001000100000000095
:101BC000007C000400080010001000200040007C91
:101BD000000000000018001000100010001000109D
:101BE000001000100010001800200020001000104D
:101BF0000010001000080008000000000030001075
:101C00000010001000100010001000100010003034
:101C10000010002800280044000000000000000020
:101C200000000000000000000000000000000000B4
:101C300000000000000000FE002000100000000076
:101C40000000000000000000000000000000000094
:101C500000380044003C0044004C00340000000008
:101C600000400040005800640044004400640058F4
:101C70000000000000000000003800440040004068
:101C80000044003800000000000400040034004C50
:101C900000440044004C003400000000000000003C
:101CA00000380044007C0040004400380000000080
:101CB000000C0010007C001000100010001000103C
:101CC00000000000000000000034004C004400440C
:101CD000004C0034000400780040004000580064CC
:101CE00000440044004400440000000000100000D4
:101CF0000070001000100010001000100000000024
:101D00000010000000700010001000100010001003
:101D1000001000E00040004000480050006000500B
:101D20000048004400000000007000100010001087
:101D30000010001000100010000000000000000063
:101D40000078005400540054005400540000000077
:101D500000000000005800640044004400440044B7
:101D6000000000000000000000380044004400446F
:101D7000004400380000000000000000005800642B
:101D8000004400440064005800400040000000008F
:101D90000034004C00440044004C003400040004B3
:101DA0000000000000580064004000400040004077
:101DB000000000000000000000380044003000086F
:101DC00000440038000000000020002000780020BF
:101DD000002000200020001800000000000000008B
:101DE0000044004400440044004C00340000000063
:101DF00000000000004400440028002800280010D3
:101E00000000000000000000005400540054006C6A
:101E10000028002800000000000000000044002806
:101E20000010001000280044000000000000000026
:101E3000004400440028002800100010001000603A
:101E400000000000007C0008001000200040007C22
:101E500000000000001800100010001000200020FA
:101E600000100010001000180010001000100010EA
:101E700000100010001000100010001000300010C2
:101E800000100010000800080010001000100030C2
:101E90000000000000000074004C00000000000082
:101EA0000000000000000000000000000000000032
:101EB0000000000000000000000000000000000022
:101EC00000000000000000000000000C000C000CEE
:101ED000000C000C000C000C000C000C000C000CA2
:101EE0000000000C000C0000000000000000001BBF
:101EF000001B001B001B001B000000000000000076
:101F000000000000000000000000000000000000D1
:101F100000008019801980198019C07FC07F801946
:101F20000033C07FC07F0033003300330033000034
:101F3000000000000000001E003F807580650074F6
:101F4000003C001E00078005806580658075003FAD
:101F5000001E0004000400000000007000D840D8FB
:101F6000C0D880D900730006000C801BC036C06644
:101F7000C046C00680030000000000000000001EF4
:101F8000003F003300330033001E000CC03CC0662D
:101F9000806380618063C03E801C00000000000000
:101FA0000000000C000C000C000C000C00000000F5
:101FB0000000000000000000000000000000000021
:101FC000000000008000000100030006000600047D
:101FD000000C000C000C000C000C000C00040006AF
:101FE0000006000300018000002000100018000C13
:101FF000000C0004000600060006000600060006AD
:102000000004000C000C0018001000200000000C60
:10201000002D003F001E0033000000000000000003
:1020200000000000000000000000000000000000B0
:10203000000000000000000C000C000C000CC0FFB1
:10204000C0FF000C000C000C000C000000000000A1
:102050000000000000000000000000000000000080
:102060000000000000000000000000000000000C64
:10207000000C000400040008000000000000000044
:1020800000000000000000000000001E001E000014
:102090000000000000000000000000000000000040
:1020A0000000000000000000000000000000000030
:1020B000000000000000000C000C00000000000008
:1020C00000000003000300030006000600060006EF
:1020D000000C000C000C000C001800180018000088
:1020E000000000000000001E003F0033806180619E
:1020F0008061806D806D8061806180610033003F10
:10210000001E00000000000000000006000E001E7F
:10211000003600260006000600060006000600063F
:102120000006000600060000000000000000001E7F
:10213000003F807380618061800100030006000C15
:10214000001800300060807F807F000000000000E9
:102150000000001C003E006300630003000E000E40
:1021600000038001800180618073003F001E000039
:102170000000000000000006000E000E001E001E01
:102180000016003600360066807F807F000600065D
:1021900000060000000000000000007F007F0060DB
:1021A00000600060006E007F8063800180018061BC
:1021B0008073003F001E0000000000000000001EB1
:1021C000003F803380610060006E007F807380611B
:1021D000806180618033003F001E0000000000002D
:1021E0000000807F807F800100030003000600065E
:1021F000000C000C000C000800180018001800006B
:10220000000000000000001E003F806380618061CC
:102210000021001E003F8061806180618061003F7D
:10222000001E0000000000000000001E003F0073C0
:102230008061806180618073803F801D800180614A
:102240000073003F001E00000000000000000000BE
:10225000000000000000000C000C00000000000066
:10226000000000000000000C000C00000000000056
:10227000000000000000000000000000000C000C46
:1022800000000000000000000000000C000C000432
:10229000000400080000000000000000800080032F
:1022A000000E003800600038000E8003800000003F
:1022B000000000000000000000000000000000001E
:1022C0000000807F807F00000000807F807F000012
:1022D00000000000000000000000000000000000FE
:1022E0000000000000400070001C00078001000793
:1022F000001C007000400000000000000000000012
:102300000000001F803FC071C060C000C00180039A
:102310000007000E000C000C0000000C000C000078
:10232000000000000000001E003F803180718063CB
:10233000806F806D806D806F806700600032003E2E
:10234000001C0000000000000000000E000E001B3A
:10235000001B001B001B80318031803F803F80319B
:10236000C060C060C0600000000000000000007C91
:10237000007E0063006300630063007E007E0063F4
:10238000806180618063007F007E000000000000AB
:102390000000001E003F803180610060006000602E
:1023A00000600060006080618031003F001E00001E
:1023B000000000000000007C007F006380638061FB
:1023C0008061806180618061806100630063007E64
:1023D000007C0000000000000000807F807F006023
:1023E000006000600060007F007F006000600060AF
:1023F0000060807F807F0000000000000000807F80
:10240000807F0060006000600060007F007F0060EF
:1024100000600060006000600060000000000000DC
:102420000000001E003F803180610060006000609D
:1024300080638063806180618031803F001E000086
:102440000000000000008061806180618061806127
:102450008061807F807F8061806180618061806138
:1024600080610000000000000000003F003F000C01
:10247000000C000C000C000C000C000C000C000CFC
:10248000000C003F003F0000000000000000800141
:102490008001800180018001800180018001800134
:1024A000806180618073003F001E0000000000001A
:1024B0000000C0608061006300660066006C007808
:1024C000007C00660066006380618061C06000007F
:1024D000000000000000006000600060006000601C
:1024E0000060006000600060006000600060807F4D
:1024F000807F0000000000000000C071C071C07B40
:10250000C07AC06AC06AC06EC064C060C060C0608B
:10251000C060C060C060000000000000000080716A
:102520008071807980798079806D806D806D806523
:102530008067806780678063806300000000000020
:102540000000001E003F0033806180618061806177
:1025500080618061806180610033003F001E000067
:10256000000000000000007E007F806380618061C9
:1025700080618063007F007E00600060006000601A
:1025800000600000000000000000001E003F00335B
:102590008061806180618061806180618065806729
:1025A0000033803F401E0000000000000000007E5D
:1025B000007F8063806180618063007F007E0066B1
:1025C0000063006380618061C06000000000000063
:1025D0000000000E001F8031803100300038001EE6
:1025E00000078003806180618031003F001E000091
:1025F000000000000000C0FFC0FF000C000C000C39
:10260000000C000C000C000C000C000C000C000C6A
:10261000000C00000000000000008061806180610B
:1026200080618061806180618061806180618061A2
:102630008073003F001E0000000000000000C0602A
:10264000C060C060803180318031001B001B001BE6
:10265000001B000E000E000E000400000000000031
:102660000000C0C0C0C0C0C0C0C0C0C0C0CC804C92
:10267000804C805E80528052807380618061000057
:10268000000000000000C0C0806080610033003B9B
:10269000001E000C000C001E001F003B80718061BA
:1026A000C0C00000000000000000C0C08061806168
:1026B00000330033001E001E000C000C000C000C48
:1026C000000C000C000C0000000000000000803F27
:1026D000803F8001000300030006000C000C00187E
:1026E000001800300060807F807F00000000000044
:1026F000000F000F000C000C000C000C000C000C74
:10270000000C000C000C000C000C000C000C000C69
:10271000000F000F0000001800180018000C000C3B
:10272000000C000C00060006000600060003000373
:102730000003000000000000001E001E000600064E
:102740000006000600060006000600060006000659
:102750000006000600060006001E001E0000000C19
:10276000000C001E00120033003380618061000005
:102770000000000000000000000000000000000059
:102780000000000000000000000000000000000049
:102790000000000000000000000000000000000039
:1027A000E0FF0000000000380018000C00000000EE
:1027B0000000000000000000000000000000000019
:1027C0000000000000000000000000000000000009
:1027D0000000001F803F80618001801F803F80617A
:1027E0008063807FC03800000000000000000060AF
:1027F000006000600060006E007F80738061806117
:10280000806180618073007F006E00000000000026
:1028100000000000000000000000001E003F807368
:1028200080610060006080618073003F001E0000D6
:102830000000000000008001800180018001801DF7
:10284000803F807380618061806180618073803FA0
:10285000801D0000000000000000000000000000DB
:102860000000001E003F00738061807F807F006059
:102870008071003F001E0000000000000000C00743
:10288000C00F000C000C807F807F000C000C000C3F
:10289000000C000C000C000C000C000000000000FC
:1028A0000000000000000000801D803F80738061F8
:1028B0008061806180618073803F801D80018063C2
:1028C000007F003E00000060006000600060006F5C
:1028D000807F8071806180618061806180618061C2
:1028E00080610000000000000000000600060000FB
:1028F0000000003E003E000600060006000600063E
:1029000000060006000600000000000000060006A9
:1029100000000000003E003E000600060006000623
:10292000000600060006000600060046007E003C89
:10293000000000600060006000608061006300666D
:10294000006C007C0076006300638061C060000062
:10295000000000000000003E003E000600060006E9
:102960000006000600060006000600060006000637
:102970000006000000000000000000000000000051
:10298000000080DDC0FFC0CEC0CCC0CCC0CCC0CC6D
:10299000C0CCC0CCC0CC0000000000000000000093
:1029A000000000000000006F807F80718061806106
:1029B00080618061806180618061000000000000B2
:1029C00000000000000000000000001E003F8073B7
:1029D00080618061806180618073003F001E000023
:1029E000000000000000000000000000006E007FFA
:1029F000807380618061806180618073007F006E80
:102A00000060006000600060000000000000000046
:102A1000801D803F807380618061806180618073F0
:102A2000803F801D80018001800180010000000046
:102A30000000000000000067803F003900300030D7
:102A40000030003000300030003000000000000096
:102A500000000000000000000000001E803F8061B8
:102A60000060007F803F80018061007F001E0000C9
:102A70000000000000000000000800180018007F9F
:102A8000007F001800180018001800180018801F98
:102A9000800F0000000000000000000000000000A7
:102AA00000008061806180618061806180618061FF
:102AB0008063807F803D0000000000000000000077
:102AC000000000000000C060803180318031001BB8
:102AD000001B001B000E000E00060000000000009E
:102AE0000000000000000000000080DD80DD80DDCF
:102AF00000550055005500770077002200220000A5
:102B000000000000000000000000000000008061E4
:102B100000330033001E000C000C001E0033003395
:102B200080610000000000000000000000000000C4
:102B300080618061803100330033001B001B001B6B
:102B4000000E000E000E001C007C00700000000053
:102B5000000000000000C07FC07F8001000300066D
:102B6000000C00180030C07FC07F00000000000093
:102B70008003800700060006000600060006000E1F
:102B8000001C001C000E00060006000600060006E1
:102B90008007800300060006000600060006000607
:102BA00000060006000600060006000600060006F5
:102BB00000060006000600060038003C000C000C71
:102BC000000C000C000C000E00070007000E000CAB
:102BD000000C000C000C000C003C00380000000051
:102BE000000000000000000000008038807F0047E7
:102BF00000000000000000000000000000000000D5
:102C0000202C000800000020280000003C140008D0
:102C1000482C000828000020580800004C14000828
:102C20000100000010000000000000000024F4007B
:102C3000070A0000381700080B120000A41E000845
:082C400000000000000000008C
:04000005080000ED02
:00000001FF
