:020000040800F2
:100000009804002005010008AB1F0008D91B000858
:10001000A91F0008050D00081520000800000000B9
:10002000000000000000000000000000AF1F0008FA
:10003000070D000800000000AD1F0008B11F0008F8
:100040001F0100081F0100081F0100081F01000810
:100050001F0100081F0100081F0100081F01000800
:100060001F0100081F0100081F0100081F010008F0
:100070001F0100081F0100081F0100081F010008E0
:100080001F0100081F0100081F0100081F010008D0
:100090001F0100081F0100081F0100081F010008C0
:1000A0001F0100081F0100081F0100081F010008B0
:1000B0001F0100081F0100081F0100081F010008A0
:1000C0001F0100081F0100081F0100081F01000890
:1000D0001F0100081F0100081F0100081F01000880
:1000E0001F0100081F0100081F010008DFF810D0E1
:1000F00000F0C8FB0048004775210008AFF30080FE
:10010000980400200648804706480047FEE7FEE7BF
:10011000FEE7FEE7FEE7FEE7FEE7FEE7FEE7FEE7B7
:1001200013200008ED0000082DE9F0410024061B13
:10013000254671F1000605DA01240027D0EB0700FF
:1001400067EB0101161E73F1000605DA0027D2EBFA
:100150000702012567EB030300F0FFF986460E4610
:1001600017469C46AC4204D00025D0EB050E65EB4B
:10017000010624B10020D2EB000760EB030C7046AF
:1001800031463A466346BDE8F081202A04DB203A36
:1001900021FA02F00021704721FA02F3D040C2F1A7
:1001A00020029140084319467047D2B201E000F89E
:1001B000012B491EFBD270470022F6E710B513460B
:1001C0000A4604461946FFF7F0FF204610BD80EAB4
:1001D000010210B502F00043400022D04A001FD0B7
:1001E000010E01EB1261C0F35600C2F3560240F457
:1001F000000042F40002A0FB022000047F39140436
:1002000000D0401C50EA124001D44000491EC2B246
:100210000C0604EBD010401C4008802A02D003E0FA
:10022000002010BD20F00100002900DA0020184352
:1002300010BD30B480EA010202F0004530F0004207
:1002400021F0004013D090B1C30DD40DC2F31601BC
:10025000C0F31600E41A41F4000140F400027D34BA
:10026000914201D3641C00E04900002C02DA30BC4A
:10027000002070474FF400000023914201D3891AF7
:10028000034340084FEA4101F7D151B1914202D1F5
:100290004FF0004105E002D24FF0010101E06FF0A4
:1002A000010103EBC450284430BC00F0A8B92DE98B
:1002B000FE4F804681EA0300C00F0C46009021F0FB
:1002C000004123F00045B8EB0200A94105D24046A9
:1002D000214690461C460B46024623F00040104340
:1002E00047D0270DC7F30A00C3F30A510290401A02
:1002F000019040286BDAC3F3130040F4801B009890
:10030000924620B10023D2EB030A63EB0B0B01985A
:100310005946C0F14002504600F050F906460D46DD
:1003200050465946019A00F058F910EB0800614117
:10033000002487EA115284EAE7731A4340D0009AF6
:1003400062B3019A012A4FEA075215DC001B61EBE8
:1003500002014FF0004202EA0752CDE90042001CC0
:1003600041F5801132462B4600F08FF903B0BDE80D
:10037000F08F40462146F9E7001B61EB0201001CAB
:1003800041F5801300185B412018A2F5001747EBD8
:10039000030140EAD570B6196D4111E06D084FEACE
:1003A000360645EAC0754FEA0752001B61EB0201B1
:1003B000001C41F5801149084FEA300000195141F5
:1003C00032462B4603B0BDE8F04F00F04FB900981D
:1003D000012240000023D0EB020263EBE07300989F
:1003E00021464FEAE074B8EB000061EB0401E9E755
:1003F00083F000435BE781F0004158E72DE9FE4FB1
:1004000081EA030404F0004421F0004100944FF01D
:10041000000B23F0004350EA01045ED052EA0304CB
:100420005BD0C3F30A54C1F30A552C44A4F2F3344D
:100430000194A0FB0254C1F3130141F48011C3F3F2
:10044000130343F4801301FB024400FB034E840AB0
:10045000970A44EA815447EA8357A4FB0768029548
:100460008D0A05FB07854FEA932C04FB0C542705E6
:10047000029D4FEA065847EA1637B5EB08056EEBC2
:10048000070C870E920E47EA811742EA8312A7FBF8
:100490000201B6EB0B0164EB00042B0D43EA0C33B5
:1004A0005E1844EB1C50DA465146E7FB0201C5F3E7
:1004B00013044FEA0B3343EA14534FEA0432019C0E
:1004C00043EA0603A4F10C040294009CCDE900B4B5
:1004D00000F0DBF803B0BDE8F08F00200146F9E73B
:1004E000C10F80EAE0700844CA079623002100F09B
:1004F0008FB896230022114600F08AB800F000421F
:1005000030F000400AD0C10D01F56071C0F3160053
:1005100042EA0151C20840071143704700200146DA
:10052000704701F0004330B421F0004150EA01026D
:1005300006D00A0DA2F56072C1F31301002A02DC95
:1005400030BC00207047440F44EAC104C100E018E9
:1005500030BC00EBC25000F052B82DE9F05F054608
:10056000002092469B4688460646814640241BE072
:100570002846414647462246FFF707FE53465A465D
:10058000C01A914110D311461846224600F016F8C1
:100590002D1A67EB01084F4622460120002100F08A
:1005A0000DF817EB00094E41201EA4F10104DFDC19
:1005B000484631462A464346BDE8F09F202A04DBE0
:1005C000203A00FA02F1002070479140C2F1200366
:1005D00020FA03F3194390407047202A06DBCB171B
:1005E000203A41FA02F043EAE07306E041FA02F3EE
:1005F000D040C2F1200291400843194670470029BB
:10060000A8BF7047401C490008BF20F00100704798
:1006100010B4B0FA80FC00FA0CF050EA010404BFF8
:1006200010BC704749B1CCF1200421FA04F411FA4E
:100630000CF118BF012121430843A3EB0C01CB1D92
:100640004FEA00614FEA102042BF002010BC704703
:1006500000EBC35010440029A4BF10BC7047401CDD
:10066000490008BF20F0010010BC704710B5141EEF
:1006700073F1000408DA401C41F1000192185B415B
:100680001A4301D120F0010010BD2DE9F04D924632
:100690009B4611B1B1FA81F202E0B0FA80F2203249
:1006A0009046FFF78BFF04460F4640EA0A0041EAF6
:1006B0000B0153465A46084313D0114653EA010032
:1006C00019D0C8F140025046FFF75FFD05460E46BF
:1006D000504659464246FFF771FF084305D00120B6
:1006E00004E020463946BDE8F08D0020054346EA87
:1006F000E0762C4337430A986305E40AA0EB080030
:100700000022FD0A44EA47540A3002D5002001467F
:10071000E9E7010510196941DDE90845001969415A
:10072000BDE8F04DA2E72DE9F04D81EA030404F0A5
:10073000004B21F0004514464FF0000A23F0004121
:1007400050EA050220D054EA01021DD0C5F30A5731
:100750000246C5F31303C1F31300C1F30A5640F474
:10076000801543F48013A7EB0608101BD64608F249
:10077000FD3873EB050002D308F1010801E092187F
:100780005B41B8F1000F03DA00200146BDE8F08DAF
:1007900000204FF48011064684460EE0171B73EBD1
:1007A000050705D3121B63EB050306434CEA010C56
:1007B00049084FEA300092185B4150EA0107EDD139
:1007C00052EA030012D082EA040083EA05010843DA
:1007D00005D0101BAB4106D20122002306E0002207
:1007E0004FF0004302E06FF0010253101AEB0600D5
:1007F0004CEB085110EB0A0041EB0B01BDE8F04D4A
:10080000FFF734BF70B521F0004303430CD0C1F3B0
:100810000A550024D5EB040564EB0403D617AD1A82
:10082000B34102DB0020014670BD201841EB0251AC
:1008300070BD0EB5C10F80EAE0700844CA07002100
:1008400040F233438DE80E000A460B46FFF71DFFCA
:1008500003B000BD30B5041E71F1000404DB4FF09D
:100860000044404264EB0101141E73F1000405DBF7
:100870001C464FF00043524263EB0403994208BF09
:10088000904230BD064C074D06E0E06840F00103A1
:1008900094E8070098471034AC42F6D3FFF72AFCDF
:1008A000C02C0008E02C00082DE9F04D00231A466A
:1008B0001B1A8A4103DB00200146BDE8F08DC1F31D
:1008C0000A52C1F3130141F480154FF0000BD10718
:1008D00002D100186D41521E0027044640F2FF115C
:1008E000384601EB620A3E468046024600204FF43D
:1008F0008011FFF74AFCC2197141BB1846EB010099
:10090000B4EB030C75EB000C04D3E41A65EB0005A3
:1009100017460E46241908F101006D41804634281F
:10092000E3DDF91946EB0600091BA84103D24FF09D
:10093000FF32134601E0002213461BEB070046EB93
:100940000A51BDE8F04DFFF791BE00000C4810B50C
:100950004068FFF7CEFD0B49FFF739FCFFF7CEFDEE
:10096000094A0A4B01F046FC0022094BFFF743FD00
:100970000022084BFFF742FDBDE81040FFF7D1BD54
:100980006800002008942537EBE2361AC05BC83FA8
:100990000000F03F40A5E54070B505230222EC21A0
:1009A000224800F06BFB224C002508B125703AE08C
:1009B000D02000F075F8582835D101252570882001
:1009C00000F04CF820828A2000F048F860828C20E9
:1009D00000F044F8A0828E2000F040F8E0829020E1
:1009E00000F03CF82083922000F038F860839420D7
:1009F00000F034F8A083962000F030F8E0839820CF
:100A000000F02CF820849A2000F028F860849C20C4
:100A100000F024F8A0849E2000F020F8E0842D212E
:100A2000F42000F05DF9657070BD00001400002036
:100A3000680000201FB50A23022203A98DE80E00DA
:100A400002460123EC21044800F0CEFBBDF80C0067
:100A500004B040BA10BD00001400002010B5FFF72C
:100A6000E9FF010A41EA002080B210BD1FB50A2348
:100A7000032203A98DE80E0002460123EC2107485A
:100A800000F0B2FB9DF80C009DF80D10000440EA48
:100A900001209DF80E1004B0084310BD1400002082
:100AA0001FB500218DF80C100A23012203A98DE83F
:100AB0000E0013460246EC21034800F095FB9DF81A
:100AC0000C0004B010BD00001400002010B500F0B0
:100AD000C5F8044CE06000F007F86060FFF736FFEF
:100AE000A06010BD680000202DE9F05FF720FFF73F
:100AF000BDFF584C4FEA201A5749A06AB4F920505C
:100B0000C217411842F1FF30A1FB012300FB013362
:100B100001FB0038A2FB0537EE1708FB057502FB49
:100B20000659B4F91E504FF0000BA5FB017CEE17DF
:100B300006FB01C605FB00656E0446EAD7367F0456
:100B4000FB1846EB09061BEB0309B4F91A30B4F99C
:100B50001C50A2FB037C46EBC5054FEAE37608FB7D
:100B600003C302FB0632B4F918604FEA1723A6FB51
:100B700001C84FEAE67707FB018106FB00104FEA48
:100B8000003143EA02634FEA0C3041EA1C51181865
:100B900041EB2222001CE18A42F50043A0FB0176D2
:100BA00003FB016100FB0B104210C31752EA030064
:100BB0004ED0CAF58010C117C907C60741EA5001D7
:100BC000B6EB090640F63547A6FB070C61EB0501BD
:100BD00001FB07C1002506FB0511FFF7A5FAB4F9D3
:100BE0002630420B42EAC142A3FB027CDD1705FB23
:100BF00002C54E1303FB0653A7FB025C03FB02C2B4
:100C000007FB06236A0E42EAC3125D16B4F92430CC
:100C1000A3FB007CDE1706FB00C603FB0166FB0C92
:100C2000801843EA46336941C01841EBE6414FEA78
:100C3000102040EA0160B4F922104FEA0111401877
:100C40004FEAE07100EB11604FEA2020BDE8F09F11
:100C50000020FBE768000020000CFEFF10B5F42028
:100C6000FFF71EFF20F0030040F00101F42000F028
:100C700037F8F420FFF714FF00F00300012801D03B
:100C8000144810BDF420FFF70BFF10F0030FF9D14B
:100C9000FA20FFF7EBFE01110F48CB10028AB0F9E2
:100CA0001240A3EB4203C2EB21114943B0F91420D7
:100CB00063430913DB12514303EBA131816201EB62
:100CC000810080300012FFF70BFCBDE810400349A3
:100CD000FFF7AFBA0000C6C2680000200000C8429B
:100CE00003B583B00A23012204A98DE80E00134640
:100CF0000246EC21024800F09FFB05B000BD000059
:100D000014000020FEE770472DE9F84FDFF8B89196
:100D1000002409F1040A0AF1040B23460F270BF102
:100D2000040EC9E00125A5402A40AA427DD1674EA4
:100D3000D1F804C0ACEB0608B44532D014DCBCF1E9
:100D4000030F3AD009DCBCF1000F2AD0BCF1010F2F
:100D50001CD0BCF1020F31D11DE0BCF1110F17D036
:100D6000BCF1120F2AD119E0B8F5881F19D006DCA2
:100D7000B8F5803F15D0B8F5801F1FD111E0B8F548
:100D8000001F0ED0B8F5041F18D10AE0CB6815E09B
:100D9000CB681B1D12E0CB6808330FE0CB680C3327
:100DA0000CE08B682BB1012B4FF0080303D0456199
:100DB00004E0042302E0056100E00023FF2A01D8DB
:100DC000064601E000F104064FEA840501D9A5F1C9
:100DD0002005D6F8008007FA05FC28EA0C0803FA7B
:100DE00005F548EA0508C6F800804D68ED0062D5B3
:100DF000374DAE6946F00106AE61AD6924F00306D9
:100E000005F001050095334D06EB050CDCF80850A4
:100E1000A607360F07FA06F825EA0805DFF8B880B6
:100E2000404503D14FF0000817E044E0DFF8AC8004
:100E3000404502D14FF001080FE0DFF8A4804045A3
:100E400002D14FF0020808E0DFF89880404502D157
:100E50004FF0030801E04FF0040808FA06F848EAEA
:100E60000508CCF808804D68D9F80060ED034D46C0
:100E700001D5164300E096432E604D68DAF8006015
:100E8000AD03554601D5164300E096432E604D68EC
:100E9000DBF80060ED025D4601D5164300E09643A5
:100EA0002E604D68DEF80060AD02754601D5164330
:100EB00000E096432E60641C0D682A46E5407FF4EE
:100EC00031AFBDE8F88F00000004014000001110B0
:100ED000001002400000014000080140000C0140E9
:100EE0000010014000140140014880687047000074
:100EF0000000002070B5040025D094F83D000025C6
:100F000020B984F83C50204600F02EFB242084F8C1
:100F10003D002068016821F001010160206801683E
:100F200041F4004101602068016821F40041016042
:100F300000F068FC4D4A6168914201D84C4900E0DC
:100F40004C49884201D2012070BD4B492368B0FB57
:100F5000F1F15E6826F03F060E435E6063689342DF
:100F600006D94FF4967359434FF47A73B1FBF3F1FA
:100F70002368491C1E6A26F03F06314319626168E6
:100F8000914210D84900401EB0FBF1F2521CC2F34E
:100F90000B02042A01D2042022E0B0FBF1F0401C35
:100FA000C0F30B001CE0A268F2B301EBC10303EB3A
:100FB0000116431EB3FBF6F35B1C43F480431B0591
:100FC00049D092B301EBC10202EB0111401EB0FB0C
:100FD000F1F0401CC0F30B0040F4804040F40040AE
:100FE0002168CA694CF6FF739A431043C861D4E97B
:100FF000071001432068026822F0C002114301601B
:10100000D4E9030101432068826848F2FF339A4320
:1010100011438160D4E9050108432168CA6822F0C0
:10102000FF021043C86001E00EE016E0206801688E
:1010300041F0010101602564202084F83D00256312
:1010400084F83E50002070BD01EB4106431EB3FB07
:10105000F6F35B1CB3E70120C2E701EB4101401E40
:10106000B0FBF1F0401CC0F30B00B7E7A086010015
:1010700080841E0000093D0040420F002DE9FF4F13
:1010800081B089460446FFF72FFF054694F83D00DE
:101090004FF0010820287DD1192301225049204614
:1010A000009500F0A9FE002874D194F83C000128B6
:1010B00070D0012084F83C0020680168C90703D182
:1010C000016841F0010101602068016821F40061BC
:1010D0000160242084F83D00002626644148E06237
:1010E0004FF0011B20272068016841F480710160E6
:1010F0000095002259462046049B00F07DFE50B129
:1011000020680068C00502D54FF4007020640320F9
:1011100005B0BDE8F08F216809F0FE000861FFF717
:10112000E3FE2168054648694969C0F34000C1F300
:1011300080214FF0A00A0FE0FFF7D6FE411B049874
:10114000814200D808B984F83DA0216848694969FE
:10115000C0F34000C1F3802194F83D20A02A02D0C2
:1011600008B90029E8D084F83D7020684169C94376
:10117000890716D4016841F4007101602068416953
:1011800080691923012216492046009500F034FE9B
:10119000B8B900E021E084F83D7084F83C6000209C
:1011A000B6E7016841F40071016021686FF4806066
:1011B0004861192301220A492046009500F01CFECF
:1011C00008B10120A4E7039808F1010880458AD3FB
:1011D00084F83D7084F83C60F3E7022098E7000053
:1011E000020010000000FFFF2DE9FF4F83B0002533
:1011F000DDE910799A4693460446DDF8488000956B
:10120000FFF772FE064694F83D0020287CD1192392
:10121000012285492046009600F0EEFD0028F5D118
:1012200094F83C0001286FD0012084F83C0020682D
:101230000168C90703D1016841F00101016020681C
:10124000016821F400610160222084F83D00402003
:1012500084F83E0025646762A4F82A90608D20859A
:101260007248E062CDE9008653465A46204604990A
:1012700000F0CAFC00287DD1208DDFF8B491202732
:1012800068B1012814D00228206801681ED041F4FA
:10129000806101602068416980690090B6E0206843
:1012A000416981690091016841F400710160ADE01C
:1012B0002068016821F48061016072B6206841698C
:1012C00081690091016841F400710AE041F4006114
:1012D000016072B62068416981690091016821F45A
:1012E0008061016062B691E0032868D801280CD0C3
:1012F000022843464FF000024946204600960FD090
:1013000000F07AFDB0BB10E08BE03246414620464B
:1013100000F0F1FD70BB20680069616A08706CE044
:1013200000F06AFD30BB72B634E02068016821F439
:101330008061016072B620680069616A0870606A45
:10134000401C6062208D401E2085608D401E60859F
:10135000384846F2A8110068B0FBF1F0C0EBC000BD
:1013600000EB80000090401E009008D0206840698B
:10137000C04300E029E040070CD50098F3E744F8AB
:10138000305F6773A573206940F02000206162B66A
:1013900025731AE02068016841F40071016020683B
:1013A0000069616A0870606A401C6062218D491E94
:1013B0002185618D491E618562B621681BE0324638
:1013C0004146204600F097FD18B1012007B0BDE866
:1013D000F08F20680069616A0870606A401C606272
:1013E000218D491E2185618D491E618521684A69CB
:1013F000D24352070AD409690170606A401C6062D6
:10140000208D401E2085608D401E6085208D002827
:101410007FF46AAF84F83D7084F83E5084F83C5005
:10142000D4E70220D2E70000020010000000FFFF16
:10143000040001000C0000202DE9FF4F83B09A4604
:10144000DDE9119793460446DDF84080FFF74CFD37
:10145000054694F83D0020287FD1192301224049F8
:101460002046009500F0C8FC002876D194F83C0096
:10147000012872D0012084F83C0020680168C90767
:1014800003D1016841F0010101602068016821F485
:1014900000610160212084F83D00402084F83E0076
:1014A00000262664C4F82480A4F82A90608D208544
:1014B0002C48E062CDE9007553465A46204604990F
:1014C00000F020FC70B930E02A463946204600F092
:1014D00045FD58B1206C042804D12068016841F40E
:1014E00000710160012007B0BDE8F08F606A2168DB
:1014F00000780861606A401C6062218D491E89B2D3
:101500002185628D521E628522685369DB435B0729
:101510000BD469B100781061606A401C6062208D54
:10152000401E2085608D401E6085208D0028CBD117
:101530002A463946204600F039FC0028CAD154F822
:101540003D0B016841F400710160202004F81E0980
:10155000E67766770020C6E7FFE70220C3E70000D2
:10156000020010000000FFFF10B586B000210091BE
:1015700001910291039100680F4988421AD10F4CE2
:10158000A06940F00800A061A069694600F0080069
:101590000490C0200090122001900320039008487E
:1015A000FFF7B2FBE06940F40010E061E06900F48D
:1015B0000010049006B010BD00540040001002401E
:1015C000000C014002488168027811448160704734
:1015D00000000020074810B5016841F010010160CB
:1015E000032000F067F8002000F006F800F024F86F
:1015F000002010BD0020024070B50D4D04464FF490
:101600007A712878B1FBF0F00A490968B1FBF0F073
:1016100000F0CEFA48B9102C07D200222146501E05
:1016200000F028F800206C6070BD012070BD000043
:10163000000000200C0000200C4808B5816941F032
:1016400001018161816901F001010091C16941F0ED
:101650008051C161C06900F0805000900448416829
:1016600021F0E06141F00071416008BD00100240CE
:1016700000000140F0B40E4B1B680C46C3F302237C
:10168000C3F10705042D00D90425191D072901D22E
:10169000002300E0DB1E012606FA05F1491E214069
:1016A00099409E40761E16403143F0BC00F0C7BC06
:1016B0000CED00E0064900F0070208684FF6FF0352
:1016C000184040EA0220034A1043086070470000B7
:1016D0000CED00E00000FA052DE9F0470F4605008B
:1016E00061D0434E306800F00700B84209D230683C
:1016F00020F0070038433060306800F00700B8423F
:1017000051D128683B4C810712D5400703D560684A
:1017100040F4E06060602878000703D5606840F41A
:10172000605060606068A96820F0F0000843606065
:101730002878C00728D06868012810D021680228BE
:1017400010D0890700292EDA616821F003010143D6
:101750006160FFF7C9FB804641F288390DE02168DE
:101760008903EFE78901EDE7FFF7BEFBA0EB080176
:10177000494502D90320BDE8F0876068696800F038
:101780000C00B0EB810FEFD1306800F00700B842D9
:101790000BD9306820F0070038433060306800F023
:1017A0000700B84201D00120E5E72878400705D5B9
:1017B0006068E96820F4E06008436060287800070A
:1017C00006D56068296920F4605040EAC100606075
:1017D00000F028F86168084AC1F30311515CC84061
:1017E0000649086006480068FFF706FF0020C2E7C8
:1017F0000020024000100240182C00080C000020BD
:10180000040000200448054900684968044AC1F3FF
:101810000221515CC84070470C00002000100240BB
:10182000282C000812A185B00FC98DE80F0014A064
:10183000144A006804905168134801F00C03042B0B
:1018400010D0082B0ED1C1F38343C9031DF8030048
:101850000AD5516804AAC1F34041515C0A4A504379
:10186000B0FBF1F005B0704708494843FAE70000C3
:1018700002030405060708090A0B0C0D0E0F1010D1
:10188000010200000010024000127A0000093D0031
:101890002DE9F84F040070D02078C04DC00749D022
:1018A0006868C0F38100012807D06868C0F3810030
:1018B000022809D16868C00306D52868800339D595
:1018C00060680028E7D035E06068B0F5803F0BD055
:1018D00010B1B0F5A02F11D0286820F48030286016
:1018E000286820F4802002E0286840F480302860D6
:1018F000606890B1FFF7F8FA06460AE0286840F4FD
:1019000080202860F0E700BFFFF7EEFA801B642814
:1019100073D828688003F7D50CE0FFF7E5FA064690
:1019200005E000BFFFF7E0FA801B6428F0D82868C4
:101930008003F7D420789A4E80074FF001094FF0CA
:10194000000839D5686810F00C0F07D06868C0F33C
:101950008100022809D16868C00306D4286880077E
:1019600014D52069012808D110E02069B0B1C6F86B
:101970000090FFF7B9FA074605E00AE1FFF7B4FA6D
:10198000C01B0228C4D828688007F7D52868616979
:1019900020F0F80040EAC10028600DE0C6F80080A1
:1019A000FFF7A2FA074604E0FFF79EFAC01B0228E1
:1019B00023D828688007F7D4207800072CD57948E9
:1019C000A169D9B1C0F80090FFF78EFA074604E08C
:1019D000FFF78AFAC01B02280FD8686A8007F7D57C
:1019E00071484FF4FA510068B0FBF1F0009000BF6D
:1019F0000098411E0091FAD20EE080E0C0F800800D
:101A0000FFF772FA074604E0FFF76EFAC01B0228E0
:101A100075D8686A8007F7D42078400760D5E869F0
:101A20000027C00008D4E86940F08050E861E86908
:101A3000012700F0805000905C480168C90513D46C
:101A40000168834641F480710160FFF74DFA8246D8
:101A500006E000BFFFF748FAA0EB0A0064284ED862
:101A6000DBF80000C005F5D5E06801280AD008B110
:101A7000052813D0286A20F001002862286A20F087
:101A8000040002E0286A40F001002862E06841F2A8
:101A9000883B98B1FFF728FA82460BE0286A40F0AD
:101AA00004002862EEE700BFFFF71EFAA0EB0A0170
:101AB00059455AD8286A8007F6D50CE0FFF714FA82
:101AC000824605E0FFF710FAA0EB0A0159454CD811
:101AD000286A8007F6D41FB1E86920F08050E861D9
:101AE000E06988B36968C1F38101022944D0022802
:101AF000C6F8608004D0FFF7F7F9044638E034E018
:101B0000FFF7F2F9074604E0FFF7EEF9C01B0228E1
:101B10002BD828688001F7D4206AB0F5803F05D122
:101B20006868A16820F4003008436860D4E90801BF
:101B30000843696821F4741108436860C6F860902E
:101B4000FFF7D2F9044606E025E000BFFFF7CCF925
:101B5000001B022809D828688001F7D51BE000BFC8
:101B6000FFF7C2F9001B022802D90320BDE8F88F55
:101B700028688001F4D40EE00128F7D06868226A52
:101B800000F48031914204D1616A00F470108842FF
:101B900001D00120EAE70020E8E700000010024041
:101BA00000004242800442420C00002000700040CD
:101BB00010B5401EB0F1807F01D3012010BD4FF061
:101BC000E02460610F21601700F039FA0020A06165
:101BD00007202061002010BDFEE701684A69D2435A
:101BE00052050FD46FF480624A61002140F8301F23
:101BF000202242738173026942F004020261017380
:101C000001207047002070472DE9F84F0446006816
:101C100089460B9D01689846174641F48061016032
:101C20002068016841F48071016000954FF0011B4C
:101C30000022594620460A9B00F0DEF84FF4007A55
:101C400040B120680068C00501D5C4F840A0032059
:101C5000BDE8F88F216809F0FE0008612B4628498D
:101C600020460A9A00F0FCF8F0BB206841698069C0
:101C700000902A4620460A9900F070F940B1206C85
:101C800004283AD12068016841F40071016034E011
:101C9000FEB2B8F1010F09D02168380A08612A465E
:101CA00020460A9900F05AF90028E8D12068066118
:101CB0002A4620460A9900F051F90028DFD1206811
:101CC000016841F480710160009500225946204668
:101CD0000A9B00F091F80028B3D1216809F0FF00B9
:101CE00040F00100086100E007E02B46044920466F
:101CF0000A9A00F0B5F80028AAD00120A8E7000051
:101D0000020001002DE9F843044600680D46DDE9B4
:101D1000089701689846164641F4807101604B4669
:101D200000224FF001112046009700F065F848B1FD
:101D300020680068C00502D54FF4007020640320BD
:101D4000BDE8F883216805F0FE0008613B464A467D
:101D50001549204600F084F888B9206841698069F7
:101D600000903A464946204600F0F8F848B1206C09
:101D7000042804D12068016841F400710160012049
:101D8000DEE7F5B2B8F1010F09D02168300A086129
:101D90003A464946204600F0E1F80028E7D120689D
:101DA00005610020CCE700000200010070B5164676
:101DB0000D4604460DE02046FFF70FFF08B1012055
:101DC00070BD681C05D0FFF78FF8801BA84207D8AC
:101DD00035B120684069C0434007ECD4002070BD95
:101DE000002044F8300F20216173A073216941F075
:101DF000200121612073E2E72DE9F0471E4690465D
:101E00000D460446C1F30747DDF8209008E0701C3A
:101E100006D0FFF769F8A0EB0900B0420FD876B101
:101E20002068012F18D0806925EA00000004000C0A
:101E300014D000214145EAD00020BDE8F087002001
:101E400044F8300F20216173A073216941F0200113
:101E5000216120730120F0E74069E5E70121E9E70E
:101E60002DE9F0479A4691460E46044600254FF06C
:101E70002008C1F3074725E020684069C0434005BA
:101E800014D42068016841F40071016021686FF486
:101E900080604861256384F83D8084F83E50206C62
:101EA00040F00400206484F83C501FE0B9F1FF3F8B
:101EB00008D0FFF719F8A0EB0A0149450CD8B9F191
:101EC000000F09D02068012F13D0806926EA000096
:101ED0000004000C0BD0CFE744F8305F84F80D808D
:101EE000A573206940F02000206125730120BDE822
:101EF000F0874069EAE72DE9F041002590460E465B
:101F00000446202717E04069C043C0060CD454F8AB
:101F1000301B6FF01000486144F810596777A577BF
:101F2000206A2062257717E0FEF7DEFFA0EB0800AD
:101F3000B04208D83EB120684169C9434906E2D49D
:101F40000020BDE8F08144F8305F6773A573206915
:101F500040F02000206125730120F2E770B516469D
:101F60000D4604460DE02046FFF737FE08B101207C
:101F700070BD681C05D0FEF7B7FF801BA84207D8CC
:101F800035B120684069C0430006ECD4002070BD24
:101F9000002044F8300F20216173A073216941F0C3
:101FA000200121612073E2E7FEE7FEE770477047FA
:101FB000FFF708BB30B58FB028216846FEF7FCF864
:101FC00014210AA8FEF7F8F801210804CDE9001051
:101FD0000024029402250491CDE907504FF4E0104B
:101FE00009906846FFF754FC08B172B6FEE70F206F
:101FF000CDE90A054FF48060CDE90C4002210AA822
:102000000E94FFF769FB002801D072B6FEE70FB00F
:1020100030BD7047FEE7490050EAC12018BF0420D8
:102020004A0D18BF40F0010040F2FF72B2EB515F61
:1020300008BF40F00200012808BF052070470907CB
:10204000090E002804DB00F1E02080F8001470473E
:1020500000F00F0000F1E02080F8141D70472DE91A
:10206000F0414F1E00EBC7010446D1E900011546BF
:102070001E4637F006020DD02A463346FEF7BEF95B
:102080007F1E04EBC703D3E90023FEF710F937F0F6
:102090000602F1D1022F25D0042F13D0062F18BF2E
:1020A000BDE8F0812A463346FEF7A8F9D4E90A23B1
:1020B000FEF7FDF82A463346FEF7A0F9D4E90823D7
:1020C000FEF7F5F82A463346FEF798F9D4E90623D9
:1020D000FEF7EDF82A463346FEF790F9D4E90423DB
:1020E000FEF7E5F82A463346FEF788F9D4E90223DD
:1020F000FEF7DDF82A463346FEF780F9D4E90023DF
:10210000BDE8F041FEF7D3B800221346104601495E
:10211000FEF709BB0000F03FFEF7C9B800221346E6
:1021200010461146FEF7FFBA40F2013200204FF090
:10213000E041FEF767BB0000024A00201107FEF7EE
:1021400061BB000001FDFFFF02E008C8121F08C1CB
:10215000002AFAD170477047002001E001C1121F28
:10216000002AFBD170470000014908607047000059
:102170001000002008B5FFF72DFAFFF71BFF1948E4
:10218000816941F020018161816901F020010091A4
:10219000816941F004018161816901F004010091CC
:1021A000816941F00801816180690F4900F00800F0
:1021B00000900E484FF4804201600D4941600021BB
:1021C0008160C0E9031241618161C1610162FEF772
:1021D00091FE08B172B6FEE7FEF7DEFBFEF776FC75
:1021E000FCE70000001002400054004014000020F2
:1021F000A08601002DE9F04D1D460C4698B017460B
:1022000021F0004123F00043002814BF4FF0010CDF
:102210004FF0000C0CEB440CFE4A0CEB02064FEAAC
:10222000620C66452BD33E0018BF012606EB45061F
:102230001644F94A964222D3F84A53EA070C02D0D0
:10224000944205D148B918B000201146BDE8F08D80
:10225000002808BF4FF0000C01D04FF0010C0CEB30
:10226000440212F5001F0AD8002F14BF4FF0010CD2
:102270004FF0000C0CEB450212F5001F07D918B007
:102280003A462B462146BDE8F04DFFF745BF0022F8
:10229000DFF88CA3002CB8BF534526DADFF884C3DF
:1022A0006345A8BF022220DADFF870C39C451CDC1E
:1022B000DFF874C30CEB235CBCF1140F08DDCCF128
:1022C000340627FA06FC0CFA06F6BE420DD108E0E9
:1022D0005FB9CCF1140623FA06FC0CFA06F69E420E
:1022E00003D10CF00102C2F1020251EA000C19D133
:1022F000002D17DA002C18BF022A01D0012A07D0BE
:102300000220FFF731FF18B0BDE8F04DFFF7FCBE2B
:102310000220FFF729FFFFF7F7FE18B081F0004118
:10232000BDE8F08DB7F1000C6CD1534525D104F117
:10233000804212F5801201BF00280020B74918B072
:1023400008BFBDE8F08DB548884207DC002DA1BF6D
:102350006046294618B0BDE8F08D07E0281E05DA72
:1023600080F0004118B06046BDE8F08DAF49794477
:10237000D1E9000118B0BDE8F08DDFF8A0C26345D7
:1023800025D1002D1FDA19B1514512D1D8B909E074
:10239000002840F0EC82A24A214618B062F31E01E8
:1023A000BDE8F08D0020214618B060F31E01BDE8A5
:1023B000F08D08DA18B02346BDE8F04D0246002043
:1023C0006146FEF7B0B918B02146BDE8F08D514521
:1023D00018DAB5F1804F0DD0A5F1005CBCF1FF5CBF
:1023E00010D1B4F1000C0DDB18B06146BDE8F04D22
:1023F00000F0ECBB234618B00246BDE8F04D19468C
:10240000FDF7FCBF060024F0004C3BD1D9B151458B
:1024100033D1002C06DD002DA1BF0020514618B09D
:10242000BDE8F08D002C01DD002D1BDB002C13DA44
:10243000002D11DB012A4FF0000014BF78497C49C0
:1024400018B0BDE8F08D022A18BF002C0AD0012A6E
:1024500008D1002C06DA0AE0002CB8BF002D11DAF2
:10246000012A04D0002018B00146BDE8F08D18B054
:1024700000204FF00041BDE8F08DA1F14050B0F1D7
:102480007F601AD0012000EBE47050EA020421D0F2
:10249000624C521E4FF0000B104304BF4FF0000B74
:1024A000644C654883427CDD644A654893421FDD85
:1024B000884217DB002D25DB37E0002C00DA4AB11B
:1024C000022A0CBF01204FF0FF3018B0BDE8F04DDC
:1024D000FEF7AFB90120FFF747FE18B0BDE8F04D99
:1024E000FFF71CBE4D4A8A4202DC002D0ADC1CE0CC
:1024F000814202DA002D18DA04E0484B994220DDCF
:10250000002D12DD0220FFF72FFEFFF70DFE05461E
:102510000E460022534658462146FDF76FFF18B07D
:1025200066F31E012846BDE8F08D0220FFF71CFE71
:10253000FFF702FE0A46214618B062F31E01BDE80D
:10254000F08D002230466146FDF752FF80460E4670
:102550006FF00102FEF756F94FF05532394BFDF797
:102560004AFF42463346FDF749FF0022364BFDF74E
:1025700042FF824642463346049110461946FDF713
:102580003DFF5246049BFDF739FF8A4600904FF00D
:10259000C0422E4B40463146FDF730FF2C4A2B4BB4
:1025A00000E027E0CDE9060151460098FDF726FF3F
:1025B00082460191274A284B40463146FDF71EFFCF
:1025C0005246019BFDF714FF82460B4602460591D9
:1025D000DDE90601FDF76BFEDDE9062300268846EE
:1025E0003046FDF705FF5246059BFDF704FF024606
:1025F00000F07EB90020B1F5801F07DA35223046A1
:102600006146FEF7FFF806466FF0340000EB2150FC
:1026100024E00000FFFF1F00FFFF0F000000F03F5D
:102620000000F07F0000404301FCFFFF460900006E
:102630000000F0FF0000F0BF0000E0410000F043A8
:10264000FFFFEF3F5555D53F0000E03F4715F73FEF
:10265000FE822B6544DF5DF80BAE543EA0F2FF30E6
:102660000190C1F3130040F07F6141F040510291AD
:10267000FE498842D8BF002004DDFD498142C8BF21
:10268000012001DD0D9008E000200D900198401C14
:1026900001900298A0F5801002900299F5487844C4
:1026A0000B910D9900EBC100D0E900230F93304648
:1026B0000A920B99FDF79CFECDE90601DDE90A219E
:1026C00030460F9BFDF7F3FD02460B460020EA491A
:1026D000FEF729F8059102460B460090DDE9060158
:1026E000FDF78CFE1490E5488A464FF000087844C8
:1026F0000299006812904FF0005040EA61010D9875
:102700000F9B01EB804000F5002109910A9A129875
:10271000FDF76EFE32460B9BFDF76DFE42465346BB
:10272000FDF76CFE0646029140465146099B129AFF
:10273000FDF764FEDDE90623FDF75DFE3246029BF0
:10274000FDF756FE059B009AFDF758FE0091149A7E
:102750000490534610461946FDF750FE06460246C1
:10276000C7480B46029106217844FFF778FCCDE973
:102770000510029B324610461946FDF73FFEDDE983
:102780000532FDF73BFE0591064653464046194685
:10279000149AFDF78CFD009B049AFDF72FFE32463C
:1027A000059BFDF784FDCDE90510424653461046D2
:1027B0001946FDF723FE0022B24B02910A90FDF765
:1027C00076FDDDE90532FDF772FD0E464246AD4B62
:1027D0004046FDF70DFE029B0A9AFDF709FEDDE972
:1027E0000532FDF708FE424602910A903346104634
:1027F0005146FDF703FECDE906015346149A0299AE
:102800000A98FDF7FBFD8A4602903346424600993E
:102810000498FDF7F3FD5346029AFDF748FD824602
:102820000B4602460591DDE90601FDF740FDDDE9B5
:102830000623002088460646FDF7DAFD5246059B32
:10284000FDF7D9FD824609914FF060428E4B30462C
:102850004146FDF7D3FD049006918C4A8A4B5046C1
:102860000999FDF7CBFD82460291894A894B304692
:102870004146FDF7C3FD5246029BFDF718FD864B0E
:102880007B440D9A03EBC203D3E90023FDF70FFD50
:102890000E9007910198FDF7CCFF0591DDE9061335
:1028A00082460E9A0498FDF702FD7C4A7A440D9BFD
:1028B00002EBC303D3E9002300930292FDF7F7FC78
:1028C0005246059BFDF7F3FC0026884652463046EB
:1028D000059BFDF78DFD009B029AFDF789FD069B88
:1028E000049AFDF785FD079B0E9AFDF784FD0246CD
:1028F00000200B46029038462946FDF77FFD8246B0
:1029000001912B4638461946029AFDF771FD324671
:102910004346FDF773FD5246019BFDF7C8FC074691
:102920008A463246434629460298FDF767FD05462A
:102930000E463A465346FDF7BAFC594A884691423C
:1029400021DBA8EB020353EA000210D12A463346EA
:10295000FDF74EFDCDE90401524A534B384651462E
:10296000FDF7A5FCDDE90423FDF774FF21D2022069
:10297000FFF7FAFBFFF7D8FB0A46214618B062F3CF
:102980001E01BDE8F08D494B28F000429A4210D359
:10299000474A08EB020353EA00027FF4C6AD2A4619
:1029A0003346FDF725FD3A465346FDF753FF7FF6C4
:1029B000BCAD0022019228F000403E493E4A01EBA6
:1029C0002051824223DA481C4FF4801121FA00F092
:1029D00040443A4AC0F30A517A44394BA1F2FF31DC
:1029E000CB4020EA0303C0F3130040F48010C1F190
:1029F0001401C84012680190B8F1000FBCBF4042FA
:102A0000019028463146FDF7F3FC05460E462A465E
:102A1000334638465146FDF74AFC4FF0000842461F
:102A2000284B40460591FDF7E9FCCDE90601264A11
:102A3000264B40460599FDF7E1FC009102902A469D
:102A4000334640460599FDF7D3FC3A465346FDF719
:102A5000D2FC1F4A1F4BFDF7D1FC009B029AFDF7E9
:102A600026FC0746884602460B4635E08E98030052
:102A70007AB60B008E0500000000F03FC60500008E
:102A8000F40400000000084009C7EE3FFD033ADCF3
:102A9000F5015B14E02F3EBECC0300009003000064
:102AA00000009040FE822B654715973C00CC90407B
:102AB00000346F3F01FCFFFF0000E03FDC0200003C
:102AC000FFFF0F00432EE63F396CA80C615C20BE6F
:102AD000EF39FAFE422EE63FDDE90601FDF7E7FB9E
:102AE000DDE9062305460E46FDF782FC3A464346DD
:102AF000FDF781FC0F462A463346009010461946E2
:102B0000FDF77CFC824602462E4888460B4605218E
:102B10007844FFF7A4FA52464346FDF76FFC2A4675
:102B20003346FDF768FC80468A463B4628463146D8
:102B3000009AFDF763FC3B46009AFDF7B8FB06914F
:102B4000009000224FF0804340465146FDF750FC74
:102B50000F460C904246534628463146FDF74EFC40
:102B60003B460C9AFDF7DFFD069B009AFDF740FC03
:102B70002A463346FDF73CFC0022134BFDF73BFC95
:102B8000054601980E4601EB00510815002810DC9F
:102B900028463146019AFDF735FEFFF73CFA042836
:102BA00008BFFFF7C9FA28463146019AFDF72AFE09
:102BB00005460B4618B02A4658462146BDE8F04D5A
:102BC000FDF71CBC7C0100000000F03F2DE9F04146
:102BD00006460F46FDF768FE041E0D4618BF01208D
:102BE000284320F00040C0F17F6000F1E040C00FBA
:102BF0000ED0301C18BF0120384320F00040C0F137
:102C00007F6000F1E040C00F04BF0120FFF7ACFA85
:102C100020462946BDE8F0810000000000000000C9
:102C20000102030406070809000000000102030472
:102C3000000000000000F03F000000000000F83F2E
:102C400000000000000000000000004003B8E23F68
:102C5000000000000000000006D0CF43EBFD4C3E1A
:102C6000033333333333E33FFFAB6FDBB66DDB3F0F
:102C70004D268F515555D53F01411DA96074D13F57
:102C800065DBC9934A86CD3FEF4E454A287ECA3F51
:102C90003E5555555555C53F93BDBE166CC166BFD3
:102CA0002CDE25AF6A56113FF16BD2C541BDBBBECC
:102CB000D0A4BE726937663E00000000000000002C
:102CC000E02C00080000002014000000482100084B
:102CD000F42C00081400002084040000582100088F
:102CE0000100000010000000000000000024F400BB
:042CF00000000000E0
:04000005080000ED02
:00000001FF
